:04000000FEEF3FF0E0
:10080000001F1F1F1F00000000000000001F1F1F0F
:100810001F1F1F1F1F1F1F1F00001F1F1F1F1F1F26
:100820001F000000000000000000000000000000A9
:1008300000000000000000000000000000000000B8
:10084000001F1F1C1C00000000000000001C1C1FDB
:100850001F1F1F0F0F0F0F1F1F1F1F1E1E1E1E1FEC
:100860001F0103070F000000001E1E1E1E1E1E1E7D
:100870001E1F1F000000001F1F1E1E1E1E1E1E1F0B
:100880001F1F1800000000000000000000000018FA
:100890001F1F070707070707071F1C1C1C1C1C1C22
:1008A0001F1F1C1C1C1C1C1C1C1C1C1C1C1C1C1C82
:1008B0001C1F0000000000001F1C1C1C1C1C1C1C1A
:1008C0001F0000A03A414443202D204249472044C4
:1008D0006967697473004D724368756E636B756503
:0508E00065212100006C
:1008E6001250800B1B6E12501224216E11AE7EEF39
:1008F60004F080EF04F081EF04F021802150D8B499
:1009060087EF04F089EF04F09CEF04F02128D8A4C7
:100916008FEF04F091EF04F099EF04F0000E0F6EE4
:10092600000E106E000E116E000E126E118EA4EFE8
:1009360004F0000E0F6E000E106E000E116E000E0B
:10094600126E1650800B1B1A16501624206E15AE0A
:10095600AFEF04F0B1EF04F0B2EF04F020802050C6
:10096600D8B4B8EF04F0BAEF04F0CDEF04F02028C5
:10097600D8A4C0EF04F0C2EF04F0CAEF04F0000EF2
:10098600136E000E146E000E156E000E166E158E8A
:10099600D5EF04F0000E136E000E146E000E156EE9
:1009A600000E166E2050D8B4DBEF04F0DDEF04F035
:1009B600E5EF04F02150D8A4E3EF04F0E5EF04F0EE
:1009C600EFEF04F0000E0F6E000E106E000E116EAB
:1009D600000E126E99EF06F015500F026F00CCFF55
:1009E60026F06F00D0FF27F026501C6E1D6A1E6A87
:1009F6001F6A2750226E236A246A256A1450100241
:100A06006F00CCFF26F06F00D0FF27F026501C2683
:100A1600000E1D221E221F2227502226000E2322F0
:100A260024222522135011026F00CCFF26F06F00FE
:100A3600D0FF27F026501C26000E1D221E221F2244
:100A460027502226000E2322242225221EC01FF014
:100A56001DC01EF01CC01DF01C6A135010026F0052
:100A6600CCFF26F06F00D0FF27F026501C2627501B
:100A76001D22000E1E22000E1F2214500F026F00B0
:100A8600CCFF26F06F00D0FF27F026501C262750FB
:100A96001D22000E1E22000E1F221EC01FF01DC0AA
:100AA6001EF01CC01DF01C6A13500F026F00CCFF15
:100AB60026F06F00D0FF27F026501C2627501D2257
:100AC600000E1E22000E1F22155010026F00CCFFD2
:100AD60026F06F00D0FF27F026502226275023222B
:100AE600000E2422000E2522145011026F00CCFFA6
:100AF60026F06F00D0FF27F026502226275023220B
:100B0600000E2422000E2522155011026F00CCFF84
:100B160026F06F00D0FF27F02650176E2750186E6C
:100B2600196A1A6A19C01AF018C019F017C018F015
:100B3600176A1750222618502322195024221A50B9
:100B460025221CC017F01DC018F01EC019F01FC0CA
:100B56001AF0190EB4EF05F0D8901A32193218327D
:100B66001732E82EAFEF05F0175022261850232231
:100B7600195024221A5025221EC01FF01DC01EF037
:100B86001CC01DF01C6A205021C017F0186A1726D9
:100B9600000E1822820E1724266EFF0E1820276ECE
:100BA600EAEF05F0D89022362336243625361FAED6
:100BB600DFEF05F0E1EF05F0E2EF05F02280D890D7
:100BC6001C361D361E361F362606D8A0270624AE2E
:100BD600EFEF05F0F1EF05F0D5EF05F0000E206E12
:100BE6001FAEF8EF05F0FAEF05F01EEF06F0FF0E68
:100BF6001C14176EFF0E1D14186EFF0E1E14196EB0
:100C06007F0E1F141A6E1750181019101A10D8B428
:100C16000FEF06F011EF06F015EF06F0010E206E4D
:100C26001EEF06F022A01AEF06F01CEF06F01EEFEC
:100C360006F011EF06F02050D8B424EF06F026EFA8
:100C460006F04AEF06F0010E2226000E2322242289
:100C5600252225A031EF06F033EF06F04AEF06F025
:100C660022C017F023C018F024C019F025C01AF0CE
:100C76001A341A3219321832173217C022F018C035
:100C860023F019C024F01AC025F0264A272A27BEC9
:100C960055EF06F0275008E12628D8A055EF06F0B4
:100CA60057EF06F061EF06F0000E226E000E236E7F
:100CB600800E246E7F0E256E8FEF06F027BE6EEF38
:100CC60006F0275006E12604D8B06CEF06F06EEF6A
:100CD60006F07AEF06F0000E226E000E236E000E6E
:100CE600246E000E256E000E1B6E8FEF06F026C0DA
:100CF60021F0FF0E2216FF0E23167F0E2416000E7D
:100D0600251621A089EF06F08BEF06F08CEF06F092
:100D1600248ED8902130256E1B50251222C00FF04C
:100D260023C010F024C011F025C012F0120037C005
:100D36005CF0000E446E32C001F033C002F034C0E5
:100D460003F035C004F0000E056E000E066E800E30
:100D5600076E3F0E086E28EC0DF0D8B0B5EF06F022
:100D6600B7EF06F0BBEF06F0010E546EF9EF06F092
:100D7600000E456E32C028F033C029F034C02AF088
:100D860035C02BF0A5EC0CF028C04BF029C04CF078
:100D96002AC04DF02BC04EF0ECEF06F04BC001F030
:100DA6004CC002F04DC003F04EC004F00A0E056EB2
:100DB600000E066E000E076E000E086E12EC0EF0A8
:100DC60001C04BF002C04CF003C04DF004C04EF021
:100DD600452A4B504C104D104E10D8A4F5EF06F096
:100DE600F7EF06F0D1EF06F045C054F0050E546457
:100DF600FFEF06F001EF07F005EF07F0000E556E66
:100E060008EF07F054500608556E010E476E000EA7
:100E1600486E000E496E000E4A6E000E466E2FEFAB
:100E260007F047C001F048C002F049C003F04AC0CD
:100E360004F00A0E056E000E066E000E076E000E1A
:100E4600086E1AEC0FF001C047F002C048F003C06C
:100E560049F004C04AF0462A5550465CD8A036EF01
:100E660007F038EF07F014EF07F032C013F033C085
:100E760014F034C015F035C016F047C001F048C074
:100E860002F049C003F04AC004F0000E9CEC0AF0E0
:100E960001C00FF002C010F003C011F004C012F040
:100EA60073EC04F00FC028F010C029F011C02AF02E
:100EB60012C02BF0A5EC0CF028C04FF029C050F062
:100EC6002AC051F02BC052F0000E576E000E566E1F
:100ED60057BE77EF07F0575009E1060E565CD8A0CB
:100EE60077EF07F079EF07F07BEF07F0B3EF07F046
:100EF6003E0E5624D96E000E5720DA6E4FC001F012
:100F060050C002F051C003F052C004F00A0E056E44
:100F1600000E066E000E076E000E086E64EC0EF0F4
:100F26000150DF6E4FC001F050C002F051C003F017
:100F360052C004F00A0E056E000E066E000E076E15
:100F4600000E086E12EC0EF001C04FF002C050F019
:100F560003C051F004C052F0564A572A6BEF07F00F
:100F6600000E596E000E586E59BEC3EF07F0595069
:100F760009E1060E585CD8A0C3EF07F0C5EF07F0ED
:100F8600C7EF07F0B9EF08F0585005085A6E3E0E45
:100F96005A24D96EDA6A000EDA22DF50536E55C033
:100FA6005BF05350D8A4DAEF07F0DCEF07F0EDEF73
:100FB60007F05B505A18D8B4E3EF07F0E5EF07F0F7
:100FC600EDEF07F04450D8B4EBEF07F0EDEF07F084
:100FD600B5EF08F0010E446E5A50386E396AFF0EAE
:100FE6003A6EFF0E3B6E5B503C6E3D6A3A503C26B5
:100FF6003B503D2238503C1807E139503D18D8A4E3
:1010060007EF08F009EF08F0ACEF08F05B50D8B432
:101016000FEF08F011EF08F0ACEF08F03650D8A447
:1010260017EF08F019EF08F01FEF08F05C50800F7B
:101036008CEC10F04BEF08F03604D8A425EF08F03E
:1010460027EF08F02DEF08F05C50C00F8CEC10F085
:101056004BEF08F0020E3618D8A434EF08F036EF3E
:1010660008F03CEF08F05C50940F8CEC10F04BEF5E
:1010760008F0030E3618D8A443EF08F045EF08F041
:101086004BEF08F05C50D40F8CEC10F04BEF08F0EF
:10109600FE0EAEEC10F03650386E396A010E382668
:1010A600000E392238503910D8A45CEF08F05EEFF4
:1010B60008F064EF08F05C50800F8CEC10F0A8EF9D
:1010C60008F03650386E396A010E3826000E39227D
:1010D60038043910D8A472EF08F074EF08F07AEFEC
:1010E60008F05C50C00F8CEC10F0A8EF08F03650FA
:1010F600386E396A010E3826000E3922020E38186B
:101106003910D8A489EF08F08BEF08F091EF08F0BA
:101116005C50940F8CEC10F0A8EF08F03650386E47
:10112600396A010E3826000E3922030E3818391096
:10113600D8A4A0EF08F0A2EF08F0A8EF08F05C50E2
:10114600D40F8CEC10F0A8EF08F0DF0EAEEC10F028
:101156005C2A36C013F05CC014F05350BAEC08F0A9
:10116600020E5C26584A592AB7EF07F01200176E8E
:101176000A0E1760C1EF08F0C3EF08F0AEEF09F0F2
:101186000001DF51E011D8A4CBEF08F0CDEF08F055
:10119600CFEF08F0AEEF09F01350D8A4D5EF08F062
:1011A600D7EF08F0DDEF08F01450800F8CEC10F04C
:1011B60009EF09F01304D8A4E3EF08F0E5EF08F00F
:1011C600EBEF08F01450C00F8CEC10F009EF09F0AB
:1011D600020E1318D8A4F2EF08F0F4EF08F0FAEFB5
:1011E60008F01450940F8CEC10F009EF09F0030E80
:1011F6001318D8A401EF09F003EF09F009EF09F07D
:101206001450D40F8CEC10F009EF09F01750040DB0
:101216006F00CCFF15F06F00D0FF16F015500001DF
:10122600DF25D96E1650E021DA6EDF50AEEC10F0F5
:101236001750040DDFC015F0E0C016F0F350152668
:10124600F4501622010E1524D96E000E1620DA6E01
:10125600DF50AEEC10F01350156E166A010E15260F
:10126600000E162215501610D8A43CEF09F03EEFDA
:1012760009F044EF09F01450800F8CEC10F088EF61
:1012860009F01350156E166A010E1526000E162269
:1012960015041610D8A452EF09F054EF09F05AEFCE
:1012A60009F01450C00F8CEC10F088EF09F01350C1
:1012B600156E166A010E1526000E1622020E151858
:1012C6001610D8A469EF09F06BEF09F071EF09F079
:1012D6001450940F8CEC10F088EF09F01350156E33
:1012E600166A010E1526000E1622030E1518161084
:1012F600D8A480EF09F082EF09F088EF09F01450C6
:10130600D40F8CEC10F088EF09F01750040DDFC0F5
:1013160015F0E0C016F0F3501526F4501622020E12
:101326001524D96E000E1620DA6EDF50AEEC10F0E2
:101336001750040DDFC015F0E0C016F0F350152667
:10134600F4501622030E1524D96E000E1620DA6EFE
:10135600DF50AEEC10F0120020EE13F010EEC9F0E4
:10136600090E6F006FFFE3FFE806FBE20001C951BB
:10137600CA11D8B4C1EF09F0C3EF09F01DEF0AF0A6
:10138600D2C01DF0010E1E6E1D2ACCEF09F0D890BA
:101396001E361D2ECAEF09F0D1C01FF0010E206EB9
:1013A6001F2AD8EF09F0D89020361F2ED6EF09F065
:1013B600D0C021F0010E226E212AE4EF09F0D89068
:1013C6002236212EE2EF09F0CFC023F0010E246E63
:1013D600232AF0EF09F0D8902436232EEEEF09F0F9
:1013E600CEC025F0010E266E252AFCEF09F0D89016
:1013F6002636252EFAEF09F0CDC027F0010E286E0D
:10140600272A08EF0AF0D8902836272E06EF0AF08A
:10141600285026102410221020101E10FF0A296EB4
:10142600600027F3D9FF60002BF3DAFF2950DF169F
:1014360050EF0AF0CA0ECB1907E13F0ECC19D8A41B
:1014460027EF0AF029EF0AF02DEF0AF0000EC26E20
:1014560050EF0AF0CB0ECB1907E13F0ECC19D8A4FA
:1014660037EF0AF039EF0AF03DEF0AF0000EC36ECF
:1014760050EF0AF0CC0ECB1907E13F0ECC19D8A4D9
:1014860047EF0AF049EF0AF04DEF0AF0000EC46E7E
:1014960050EF0AF0000E9BEF0AF0680E1D6EE40E88
:1014A600E82EFED71D2EFCD700D0CDC01DF0010EB4
:1014B6001E6E1D2A61EF0AF0D8901E361D2E5FEFB4
:1014C6000AF01E50FF0A1F6E60002FF3D9FF60005E
:1014D60033F3DAFF1F50DF16030EE2EC0EF01A0E9E
:1014E6001D6EF80EE82EFED71D2EFCD700D0030E7B
:1014F600E2EC0EF0540E1D6E1C0EE82EFED71D2ECD
:10150600FCD700D0030EE2EC0EF0020EE2EC0EF079
:10151600280E8CEC10F0060E8CEC10F0080E2A6EDD
:101526002A842A508CEC10F0010E8CEC10F0010E7F
:101536001200096E0950D8B4A3EF0AF0A5EF0AF01D
:10154600C7EF0AF004BEACEF0AF0AAEF0AF0C7EF45
:101556000AF001C005F002C006F003C007F004C09F
:1015660008F0051E061E071E081E052A000E062286
:101576000722082205C00BF006C00CF007C00DF0CC
:1015860008C00EF0CFEF0AF001C00BF002C00CF05D
:1015960003C00DF004C00EF0015002100310041039
:1015A600D8A4D8EF0AF0DAEF0AF0E4EF0AF0000E5A
:1015B600016E000E026E000E036E000E046E75EFD5
:1015C6000BF0960E0A6EEEEF0AF00A2AD8900E324B
:1015D6000D320C320B32000E0B14056E000E0C147D
:1015E600066E000E0D14076EFE0E0E14086E0550E4
:1015F600061007100810D8A403EF0BF005EF0BF048
:10160600E8EF0AF013EF0BF00A2A010E0B26000E84
:101616000C220D220E22D8900E320D320C320B32D5
:10162600000E0B14056E000E0C14066E000E0D1443
:10163600076EFF0E0E14086E0550061007100810F0
:10164600D8A428EF0BF02AEF0BF007EF0BF032EFE0
:101656000BF00A06D8900B360C360D360E360DBE3C
:1016660037EF0BF039EF0BF041EF0BF0020E0A608B
:101676003FEF0BF041EF0BF02CEF0BF00AB046EF0B
:101686000BF048EF0BF049EF0BF00D9ED8900A32A5
:101696000AC005F0066A076A086A05C008F0076A04
:1016A600066A056A05500B1206500C1207500D12F9
:1016B60008500E120950D8B463EF0BF065EF0BF02B
:1016C6006DEF0BF004BE6CEF0BF06AEF0BF06DEFF5
:1016D6000BF00E8E0BC001F00CC002F00DC003F033
:1016E6000EC004F012000A6ED2C001F0010E026EA6
:1016F600012A80EF0BF0D8900236012E7EEF0BF018
:10170600D1C003F0010E046E032A8CEF0BF0D890C3
:101716000436032E8AEF0BF0D0C005F0010E066EDC
:10172600052A98EF0BF0D8900636052E96EF0BF0AB
:10173600CFC007F0010E086E072AA4EF0BF0D89071
:101746000836072EA2EF0BF0085006100410021000
:10175600FF0A096E60002FF3D9FF600033F3DAFF4A
:101766000950DF160AA0BAEF0BF0BCEF0BF0D0EF72
:101776000BF0CFC001F0010E026E012AC5EF0BF08F
:10178600D8900236012EC3EF0BF060002FF3D9FF7D
:10179600600033F3DAFF0250DF120AA2D5EF0BF036
:1017A600D7EF0BF0EBEF0BF0D0C001F0010E026E9D
:1017B600012AE0EF0BF0D8900236012EDEEF0BF097
:1017C60060002FF3D9FF600033F3DAFF0250DF1217
:1017D6000AA4F0EF0BF0F2EF0BF006EF0CF0D1C01D
:1017E60001F0010E026E012AFBEF0BF0D8900236D3
:1017F600012EF9EF0BF060002FF3D9FF600033F3F1
:10180600DAFF0250DF120AA60BEF0CF00DEF0CF018
:1018160021EF0CF0D2C001F0010E026E012A16EF84
:101826000CF0D8900236012E14EF0CF060002FF366
:10183600D9FF600033F3DAFF0250DF12120024EC06
:1018460011F04FEC0FF0170ECDEC10F001C0DBF0ED
:1018560002C0DCF00001DB51D927DC51DA235F2A14
:101866000A0E5F6439EF0CF03BEF0CF075EF0CF0ED
:10187600D9C001F0DAC002F05FC003F0046AA8EC38
:101886000EF001C0D7F002C0D8F0000E5F6E000E59
:101896000001DA6F000ED96FD7C001F0D8C002F090
:1018A600036A046A000E9CEC0AF001C00FF002C045
:1018B60010F003C011F004C012F0000E136E000EFB
:1018C600146EA00E156E3A0E166E73EC04F00FC071
:1018D600D3F010C0D4F011C0D5F012C0D6F0010E6E
:1018E6000001E16F020E5E6E040E5D6EBA0EE82E0A
:1018F600FED75D2EFCD75E2EFAD700D00001E1514F
:10190600D8B488EF0CF08AEF0CF026EF0CF0D3C0B9
:1019160032F0D4C033F0D5C034F0D6C035F0000E66
:10192600366E000E376E9AEC06F08E0E8CEC10F0CA
:10193600560EAEEC10F0000E0001E16F26EF0CF033
:10194600FEEF3FF02A342B34316E3150D8A4AEEF7F
:101956000CF0B0EF0CF0BAEF0CF0000E286E000E93
:10196600296E000E2A6E000E2B6E27EF0DF028C092
:101976002CF029C02DF02AC02EF02BC02FF0200EFF
:10198600CAEF0CF0D8902F322E322D322C32E82EA0
:10199600C5EF0CF02C50306E2A8EFF0E2816FF0E67
:1019A6002916FF0E2A16000E2B16960E315E31BE34
:1019B600E1EF0CF0DFEF0CF0F7EF0CF03150800A9E
:1019C600970FD8B0E9EF0CF0EBEF0CF0EDEF0CF061
:1019D600B0EF0CF0D8902B322A3229322832313E21
:1019E600EDEF0CF00FEF0DF01F0E3164FDEF0CF074
:1019F600FFEF0CF007EF0DF0B0EF0CF0D8902836A3
:101A060029362A362B3631063150D8A40DEF0DF083
:101A16000FEF0DF001EF0DF03050D8B415EF0DF0CB
:101A260017EF0DF01FEF0DF02B1E2A1E291E286C36
:101A3600000E29222A222B2228C028F029C029F0AC
:101A46002AC02AF02BC02BF01200000E0114096EDA
:101A5600000E02140A6E800E03140B6E7F0E041421
:101A66000C6E09500A100B100C10D8A43DEF0DF0A7
:101A76003FEF0DF047EF0DF0000E016E000E026E07
:101A8600000E036E000E046E000E0514096E000EA5
:101A960006140A6E800E07140B6E7F0E08140C6E69
:101AA60009500A100B100C10D8A45CEF0DF05EEF75
:101AB6000DF066EF0DF0000E056E000E066E000EC0
:101AC600076E000E086E04AE6BEF0DF06DEF0DF0B5
:101AD60076EF0DF0016C021ED8B0022A031ED8B0B4
:101AE600032A800E045608AE7BEF0DF07DEF0DF055
:101AF60086EF0DF0056C061ED8B0062A071ED8B074
:101B0600072A800E0856000E011A000E021A000E51
:101B1600031A800E041A000E051A000E061A000E8D
:101B2600071A800E081A0550015C06500258075025
:101B3600035808500458D8B0A3EF0DF0A5EF0DF0E8
:101B4600A8EF0DF0D890A9EF0DF0D8801200226E04
:101B5600CEEF0DF0810E236E080E246E920E00015C
:101B6600DF6F000EE06FE7EF0DF0410E236E080EFB
:101B7600246E6A0E0001DF6F000EE06FE7EF0DF0D6
:101B8600010E236E080E246E000E0001DF6F010E9B
:101B9600E06FE7EF0DF02250186E196A1950000A2F
:101BA600D8B4D8EF0DF011EF0EF01850000AD8B4E3
:101BB600ADEF0DF0010AD8B4B8EF0DF0030AD8B4B2
:101BC600C3EF0DF011EF0EF0000E256E1A0E016E2A
:101BD600000E026E2550080D6F00CCFF18F06F0046
:101BE600D0FF19F018502324036E19502420046ED8
:101BF600000E066E080E056EB1EC0FF01A0E136E8F
:101C0600000E146E255069EC10F0252A070E256487
:101C16000FEF0EF011EF0EF0E9EF0DF01200000ECF
:101C2600096E000E0A6E000E0B6E000E0C6E05504D
:101C3600061007100810D8B423EF0EF025EF0EF0AB
:101C46005BEF0EF0010E0D6E2FEF0EF0D8900536FD
:101C56000636073608360D2A08AE34EF0EF036EF94
:101C66000EF029EF0EF0D89009360A360B360C36F0
:101C76000550015C06500258075003580850045896
:101C8600D8A048EF0EF04AEF0EF053EF0EF00550D5
:101C9600015E0650025A0750035A0850045A09803A
:101CA600D89008320732063205320D2E36EF0EF086
:101CB60009C001F00AC002F00BC003F00CC004F02A
:101CC60012000550061007100810D8B46DEF0EF07C
:101CD6006FEF0EF09FEF0EF0010E096E79EF0EF02A
:101CE600D8900536063607360836092A08AE7EEF3E
:101CF6000EF080EF0EF073EF0EF00550015C06500B
:101D060002580750035808500458D8A08DEF0EF01B
:101D16008FEF0EF097EF0EF00550015E0650025A57
:101D26000750035A0850045AD89008320732063230
:101D36000532092E80EF0EF001C001F002C002F05C
:101D460003C003F004C004F01200000E066E000E7D
:101D5600056E03500410D8B4B3EF0EF0B5EF0EF0D5
:101D6600DDEF0EF0010E076EBDEF0EF0D8900336D4
:101D76000436072A04AEC2EF0EF0C4EF0EF0B9EF38
:101D86000EF0D890053606360350015C0450025812
:101D9600D8A0D0EF0EF0D2EF0EF0D7EF0EF0035032
:101DA600015E0450025A0580D89004320332072E91
:101DB600C4EF0EF005C001F006C002F012000E6E70
:101DC6000E5076EC0BF0CEC00BF0010E0C6E0B2A0B
:101DD600EFEF0EF0D8900C360B2EEDEF0EF0600004
:101DE6002FF3D9FF600033F3DAFF0C50DF12150E24
:101DF6000B6EC60EE82EFED70B2EFCD700D0CEC03B
:101E06000BF0010E0C6E0B2A0BEF0FF0D8900C3670
:101E16000B2E09EF0FF00C50FF0A0D6E60002FF32A
:101E2600D9FF600033F3DAFF0D50DF161200000E03
:101E3600096E000E0A6E000E0B6E000E0C6E01A0EF
:101E460027EF0FF029EF0FF031EF0FF005500926BD
:101E560006500A2207500B2208500C22D89005364D
:101E6600063607360836D89004320332023201327B
:101E76000150021003100410D8A444EF0FF046EFEF
:101E86000FF022EF0FF009C001F00AC002F00BC0FC
:101E960003F00CC004F0120020EE60F000EE13F028
:101EA600090E6F006FFFEBFFE806FBE2AFEC09F0EF
:101EB600010E8CEC10F0800E8CEC10F0D60E126E2B
:101EC600080E136E82EC0FF0C00E8CEC10F0C50EEF
:101ED600126E080E136E82EC0FF00B0E2C6E260E91
:101EE6002B6E5E0EE82EFED72B2EFCD72C2EFAD7A5
:101EF600010E8CEC10F0000EAAEC0DF01200000E94
:101F0600176E000E166E9AEF0FF016501224146E0E
:101F160017501320156E600053F0F6FF600057F05F
:101F2600F7FF0800F550AEEC10F0164A172A1650C7
:101F36001224146E17501320156E600053F0F6FF2E
:101F4600600057F0F7FF0800F5500009D8A4AEEF7F
:101F56000FF0B0EF0FF088EF0FF0120003C009F09A
:101F660004C00AF001C007F002C008F0D2EF0FF07B
:101F7600600027F0F6FF60002BF0F7FF08006F0007
:101F8600D4FF0BF0094A0A2A60001FF0D9FF60004F
:101F960023F0DAFF60002FF0DFFF074A082A050664
:101FA600D8A00606052806E10628D8A4DDEF0FF01E
:101FB600DFEF0FF0BBEF0FF01200080EF66E220EE9
:101FC600F76E000EF86E00EE00F110EE28F0090034
:101FD6006F00D7FFEEFFE550E150F9E1780EF66E9F
:101FE600200EF76E000EF86E00EE60F010EE5AF05E
:101FF60009006F00D7FFEEFFE550E150F9E100EE72
:10200600BAF0280EEE6AE806FDE15F6A000EF86E89
:10201600000122EF0CF0000E3E01DE6F000EDF6FB6
:10202600000EE06F000EE16F000EE46F000EE56F2C
:10203600000EEA6F000EEC6F000EF16F000EF36FEC
:10204600000EF46F000EF56F000EF66F000EF76FC0
:10205600000EF96F000EFA6F000EFB6F000EFC6F9C
:10206600000EFD6F000EFE6F000EFF6F840EF86F00
:102076001200C33FCB3F000104050607FFFF030222
:102086000405FE0506020306000201020701FE051D
:1020960003060602030603020002FE05030203020C
:1020A60003020602040207FFFE05FE050002030600
:1020B600000201FF0701FE05030601FF030603FFF9
:1020C6000002FE05030203FF0302FE02166E16C09F
:1020D60015F0070E1516D8901536D8901536D890E7
:1020E600153440098CEC10F0000E176E17501324AF
:1020F600D96E000E1420DA6EDF50AEEC10F0172AFF
:10210600070E176489EF10F08BEF10F079EF10F0DF
:102116001200126ECDC00FF0010E106E0F2A96EF50
:1021260010F0D89010360F2E94EF10F01050FF0AD2
:10213600116E60002FF3D9FF600033F3DAFF115000
:10214600DF1612380F0B0F0BE2EC0EF012500F0BCE
:10215600E2EC0EF01200116ECDC00FF0010E106E03
:102166000F2AB8EF10F0D89010360F2EB6EF10F0F9
:1021760060002FF3D9FF600033F3DAFF1050DF124F
:1021860011380F0B0F0BE2EC0EF011500F0BE2ECB7
:102196000EF01200056E600017F0F1FE210EE82E1B
:1021A600FED700F03E01F88FF89DF881F8B1DEEF1A
:1021B60010F0E0EF10F0D9EF10F0F051046E036A62
:1021C600EF510324016E000E0420026E1200000E71
:1021D6003A01406F000E506F800E606F000EC26EA7
:1021E600000EC36E800EC46E000EBA6E000EBB6E7D
:1021F600000EBC6E000ECA6E000ECB6E000ECC6ECC
:102206001200FFFFFFFFFEFFFEFF00FFFF0100FFC2
:1022160001FFFF01FEFFFF0001FFFF00FFFF00FFC0
:10222600FEFF02020303FFFF01FF620E3901D96FB1
:10223600000EDB6F000EDD6F060EDF6F000EDE6F29
:102246001200EAEC10F018EC11F00EEC10F012008F
:047FFC00E0EF0FF0B3
:020000040020DA
:10000000FF0FFF0FFF0FFF0FFF0FFF0FFF0FFF0F80
:020000040030CA
:0A000000ECFD27FF9FFFFFFFFFFF4D
:00000001FF
