:0400000054EF20F0A9
:1040080029102910291029102910291029102910E0
:1040180029102910291029102910291029102910D0
:1040280029102910291029102910291029102910C0
:104038002910291029102910291029102910B91020
:1040480029102910291029102910291029102910A0
:104058002910291029102910291029102910291090
:104068002910291029102910291029102910291080
:104078002910291029102910291029102910291070
:104088002910291029102910291029102910291060
:104098002910291029102910291029102910FF008A
:1040A8003EEF21F0036E7DEF20F0BC94BC96BC98E7
:1040B800BC9A9EEF20F0BC84BC96BC98BC9A9EEF3C
:1040C80020F0BC94BC86BC98BC9A9EEF20F0BC94AF
:1040D800BC96BC88BC9A9EEF20F0BC94BC96BC9859
:1040E800BC8A9EEF20F0BC94BC96BC98BC9A9EEF0C
:1040F80020F00350016E026A0250000AD8B487EF1C
:1041080020F077EF20F00150000AD8B459EF20F0E2
:10411800010AD8B45FEF20F0030AD8B465EF20F0A5
:10412800010AD8B46BEF20F0070AD8B471EF20F079
:1041380077EF20F012000950D8B4A5EF20F0A7EFD0
:1041480020F0D7EF20F0082A090E0864AEEF20F01F
:10415800B0EF20F0D5EF20F0000E086EBCB8B7EF36
:1041680020F0BAEF20F0010EBBEF20F0000EFF0A9E
:10417800016E013ABC500118EF0B0118BC6EBCBAB5
:10418800C8EF20F0CBEF20F0010ECCEF20F0000EAE
:10419800FF0A016E013A0146BC500118DF0B0118F5
:1041A800BC6E000E096E1200010E066E065056EC2B
:1041B80020F0030E056E8A0E046E560EE82EFED70A
:1041C800042EFCD7052EFAD7062A040E0664EFEF54
:1041D80020F0F1EF20F0DAEF20F0040E066E065022
:1041E80056EC20F0030E056E8A0E046E560EE82E6D
:1041F800FED7042EFCD7052EFAD706060650D8A4FB
:1042080008EF21F00AEF21F0F3EF20F01200000E82
:104218003A01406F000E506F000E606F000EC26EC4
:10422800000EC36E000EC46E000EBA6E000EBB6E9A
:10423800000EBC6E000ECA6E000ECB6E000ECC6E69
:104248001200B888F00EB816B9501F0B4009B96EA5
:10425800B950F00B0409B96EB88E3901839F938F5A
:10426800A39F000E096E000E086ECF0EB76E2C0EBF
:10427800B66E1200096A086A076A080ED56E400E03
:10428800D66E000ED76E000EF86E00017BEF21F09F
:104298000BEC21F05AEC21F025EC21F066EC21F032
:1042A800D8EC20F0000E56EC20F01200620E390116
:1042B800D96F000EDB6F000EDD6F060EDF6F000E8C
:1042C800DE6F1200D28A3901839FD28ED28C000E03
:1042D800D76E400ED66E080ED56E12003901A39F18
:1042E800010E096EE70EB76E960EB66E11004CEC15
:1042F80021F083EC21F07DEF21F054EF20F09FECCA
:0443080020F012008F
:020000040020DA
:10000000FF0FFF0FFF0FFF0FFF0FFF0FFF0FFF0F80
:020000040030CA
:0A000000ECFD3FFF9FFFFFDFFFFF55
:00000001FF
