:04000000FEEF3FF0E0
:107E8A0080EC3FF0120066EC3FF05AEC3FF0120033
:107E9A00000EF86E000152EF3FF048EC3FF045EC5F
:107EAA003FF054EF3FF0FEEF3FF0600E3901D96F1B
:107EBA00000EDB6F000EDD6F080EDF6F000EDE6F47
:107ECA001200000E3A01406F000E506F000E606FF4
:107EDA00000EC26E000EC36E000EC46E000EBA6EA5
:107EEA00000EBB6E000EBC6E000ECA6E000ECB6E8C
:107EFA00000ECC6E1200010E066E0650B5EC3FF075
:107F0A00150E056E4B0E046EBE0EE82EFED7042E1D
:107F1A00FCD7052EFAD700D0062A040E066498EF7D
:107F2A003FF09AEF3FF082EF3FF0040E066E0650E4
:107F3A00B5EC3FF0150E056E4B0E046EBE0EE82E24
:107F4A00FED7042EFCD7052EFAD700D00606065017
:107F5A00D8A4B2EF3FF0B4EF3FF09CEF3FF012002D
:107F6A00036EDCEF3FF0BC94BC96BC98BC9AFDEF64
:107F7A003FF0BC84BC96BC98BC9AFDEF3FF0BC9421
:107F8A00BC86BC98BC9AFDEF3FF0BC94BC96BC88FA
:107F9A00BC9AFDEF3FF0BC94BC96BC98BC8AFDEF3E
:107FAA003FF0BC94BC96BC98BC9AFDEF3FF00350DE
:107FBA00016E026A0250000AD8B4E6EF3FF0D6EF2B
:107FCA003FF00150000AD8B4B8EF3FF0010AD8B424
:107FDA00BEEF3FF0030AD8B4C4EF3FF0010AD8B4A9
:107FEA00CAEF3FF0070AD8B4D0EF3FF0D6EF3FF020
:067FFA0012004DEF3FF004
:020000040020DA
:10000000FF0FFF0FFF0FFF0FFF0FFF0FFF0FFF0F80
:020000040030CA
:0A0000008CFD3FFF9FFFFFDFFFFFB5
:00000001FF
