:04000000FEEF3FF0E0
:107E8E0082EC3FF0120068EC3FF05CEC3FF0120029
:107E9E00000EF86E000154EF3FF04AEC3FF047EC55
:107EAE003FF056EF3FF0FEEF3FF0620E3901D96F13
:107EBE00000EDB6F000EDD6F060EDF6F000EDE6F45
:107ECE001200000E3A01406F000E506F000E606FF0
:107EDE00000EC26E000EC36E000EC46E000EBA6EA1
:107EEE00000EBB6E000EBC6E000ECA6E000ECB6E88
:107EFE00000ECC6E1200010E066E0650B5EC3FF071
:107F0E00030E056E8A0E046E560EE82EFED7042E54
:107F1E00FCD7052EFAD7062A040E066499EF3FF019
:107F2E009BEF3FF084EF3FF0040E066E0650B5EC6B
:107F3E003FF0030E056E8A0E046E560EE82EFED727
:107F4E00042EFCD7052EFAD706060650D8A4B2EF9B
:107F5E003FF0B4EF3FF09DEF3FF01200036EDCEF09
:107F6E003FF0BC94BC96BC98BC9AFDEF3FF0BC842D
:107F7E00BC96BC98BC9AFDEF3FF0BC94BC86BC98F6
:107F8E00BC9AFDEF3FF0BC94BC96BC88BC9AFDEF4A
:107F9E003FF0BC94BC96BC98BC8AFDEF3FF0BC94FD
:107FAE00BC96BC98BC9AFDEF3FF00350016E026A7E
:107FBE000250000AD8B4E6EF3FF0D6EF3FF0015082
:107FCE00000AD8B4B8EF3FF0010AD8B4BEEF3FF0C4
:107FDE00030AD8B4C4EF3FF0010AD8B4CAEF3FF099
:107FEE00070AD8B4D0EF3FF0D6EF3FF012004FEFB4
:027FFE003FF052
:020000040020DA
:10000000FF0FFF0FFF0FFF0FFF0FFF0FFF0FFF0F80
:020000040030CA
:0A000000ECFD3FFF9FFFFFDFFFFF55
:00000001FF
