:040000000EEF00F00F
:04000800D5EF04F03C
:1000180036EF04F086EF04F00C0E19EC04F017C06C
:1000280001F018C002F0F40E015C010E0258D8B0BD
:1000380020EF00F022EF00F03AEF00F0000E126E11
:10004800000E116E000E106E000E0F6E000E0E6E7A
:10005800000E0D6E000E0C6E000E0B6E000E0A6E7A
:10006800000E096E000E086E000E076EF40E015C9D
:10007800010E0258D8A043EF00F045EF00F068EFFA
:1000880000F0EE0E015C020E0258D8B04EEF00F000
:1000980050EF00F068EF00F0010E126E000E116EC6
:1000A800000E106E000E0F6E000E0E6E000E0D6E1E
:1000B800000E0C6E000E0B6E000E0A6E000E096E1E
:1000C800000E086E000E076EEE0E015C020E02585E
:1000D800D8A071EF00F073EF00F096EF00F0E80E93
:1000E800015C030E0258D8B07CEF00F07EEF00F000
:1000F80096EF00F0010E126E010E116E000E106EDA
:10010800000E0F6E000E0E6E000E0D6E000E0C6EC1
:10011800000E0B6E000E0A6E000E096E000E086EC1
:10012800000E076EE80E015C030E0258D8A09FEF80
:1001380000F0A1EF00F0C4EF00F0E20E015C040E45
:100148000258D8B0AAEF00F0ACEF00F0C4EF00F00E
:10015800010E126E010E116E010E106E000E0F6E62
:10016800000E0E6E000E0D6E000E0C6E000E0B6E65
:10017800000E0A6E000E096E000E086E000E076E65
:10018800E20E015C040E0258D8A0CDEF00F0CFEFCC
:1001980000F0F2EF00F0DC0E015C050E0258D8B05A
:1001A800D8EF00F0DAEF00F0F2EF00F0010E126E77
:1001B800010E116E010E106E010E0F6E000E0E6E06
:1001C800000E0D6E000E0C6E000E0B6E000E0A6E09
:1001D800000E096E000E086E000E076EDC0E015C44
:1001E800050E0258D8A0FBEF00F0FDEF00F020EF5D
:1001F80001F0D60E015C060E0258D8B006EF01F0E9
:1002080008EF01F020EF01F0010E126E010E116EE1
:10021800010E106E010E0F6E010E0E6E000E0D6EA9
:10022800000E0C6E000E0B6E000E0A6E000E096EAC
:10023800000E086E000E076ED60E015C060E025800
:10024800D8A029EF01F02BEF01F04EEF01F0D00E0E
:10025800015C070E0258D8B034EF01F036EF01F018
:100268004EEF01F0010E126E010E116E010E106EAE
:10027800010E0F6E010E0E6E010E0D6E000E0C6E4D
:10028800000E0B6E000E0A6E000E096E000E086E50
:10029800000E076ED00E015C070E0258D8A057EF6B
:1002A80001F059EF01F07CEF01F0CA0E015C080E75
:1002B8000258D8B062EF01F064EF01F07CEF01F072
:1002C800010E126E010E116E010E106E010E0F6EF0
:1002D800010E0E6E010E0D6E010E0C6E000E0B6EF1
:1002E800000E0A6E000E096E000E086E000E076EF4
:1002F800CA0E015C080E0258D8A085EF01F087EFFE
:1003080001F0AAEF01F0C40E015C090E0258D8B042
:1003180090EF01F092EF01F0AAEF01F0010E126EDA
:10032800010E116E010E106E010E0F6E010E0E6E93
:10033800010E0D6E010E0C6E010E0B6E000E0A6E94
:10034800000E096E000E086E000E076EC40E015CEA
:10035800090E0258D8A0B3EF01F0B5EF01F0D8EFBD
:1003680001F0BE0E015C0A0E0258D8B0BEEF01F0D3
:10037800C0EF01F0D8EF01F0010E126E010E116E00
:10038800010E106E010E0F6E010E0E6E010E0D6E37
:10039800010E0C6E010E0B6E010E0A6E000E096E38
:1003A800000E086E000E076EBE0E015C0A0E0258A3
:1003B800D8A0E1EF01F0E3EF01F006EF02F0B80E8C
:1003C800015C0B0E0258D8B0ECEF01F0EEEF01F033
:1003D80006EF02F0010E126E010E116E010E106E84
:1003E800010E0F6E010E0E6E010E0D6E010E0C6EDB
:1003F800010E0B6E010E0A6E010E096E000E086EDC
:10040800000E076EB80E015C0B0E0258D8A00FEF55
:1004180002F011EF02F034EF02F0B20E015C0C0EA4
:100428000258D8B01AEF02F01CEF02F034EF02F0D5
:10043800010E126E010E116E010E106E010E0F6E7E
:10044800010E0E6E010E0D6E010E0C6E010E0B6E7E
:10045800010E0A6E010E096E010E086E000E076E7F
:10046800B20E015C0C0E0258D8A03DEF02F03FEF2F
:1004780002F057EF02F0010E126E010E116E010E1E
:10048800106E010E0F6E010E0E6E010E0D6E010E36
:100498000C6E010E0B6E010E0A6E010E096E010E36
:1004A800086E010E076E1200196E29EF03F0C39053
:1004B800C392C394C396BB90BB92BB94BB966EEF9A
:1004C80003F01250D8B46BEF02F06DEF02F06EEF4C
:1004D80003F0C390C392C384C386BB90BB826EEF04
:1004E80003F01150D8B47BEF02F07DEF02F06EEF0D
:1004F80003F0C390C392C384C386BB80BB926EEFE4
:1005080003F01050D8B48BEF02F08DEF02F06EEFCD
:1005180003F0C380C392C394C386BB92BB846EEFBF
:1005280003F00F50D8B49BEF02F09DEF02F06EEF8E
:1005380003F0C380C392C394C386BB82BB946EEF9F
:1005480003F00E50D8B4ABEF02F0ADEF02F06EEF4F
:1005580003F0C380C382C394C396BB94BB866EEF7B
:1005680003F00D50D8B4BBEF02F0BDEF02F06EEF10
:1005780003F0C380C382C394C396BB84BB966EEF5B
:1005880003F00C50D8B4CBEF02F0CDEF02F06EEFD1
:1005980003F0C390C382C394C386BB90BB846EEF41
:1005A80003F00B50D8B4DBEF02F0DDEF02F06EEF92
:1005B80003F0C390C382C394C386BB80BB946EEF21
:1005C80003F00A50D8B4EBEF02F0EDEF02F06EEF53
:1005D80003F0C380C392C384C396BB92BB866EEFFD
:1005E80003F00950D8B4FBEF02F0FDEF02F06EEF14
:1005F80003F0C380C392C384C396BB82BB966EEFDD
:1006080003F00850D8B40BEF03F00DEF03F06EEFD2
:1006180003F0C390C382C384C396BB90BB866EEFBE
:1006280003F00750D8B41BEF03F01DEF03F06EEF93
:1006380003F0C390C382C384C396BB80BB966EEF9E
:1006480003F0000E136E6EEF03F01950176E186A60
:100658001850000AD8B433EF03F06EEF03F01750C8
:10066800000AD8B45BEF02F0010AD8B465EF02F0D3
:10067800030AD8B475EF02F0010AD8B485EF02F086
:10068800070AD8B495EF02F0010AD8B4A5EF02F032
:10069800030AD8B4B5EF02F0010AD8B4C5EF02F0E6
:1006A8000F0AD8B4D5EF02F0010AD8B4E5EF02F08A
:1006B800030AD8B4F5EF02F0010AD8B405EF03F045
:1006C800070AD8B415EF03F0010AD8B425EF03F0F0
:1006D8006EEF03F01200196E96EF03F0BC94BC960F
:1006E800BC98BC9AB7EF03F0BC84BC96BC98BC9A83
:1006F800B7EF03F0BC94BC86BC98BC9AB7EF03F084
:10070800BC94BC96BC88BC9AB7EF03F0BC94BC966A
:10071800BC98BC8AB7EF03F0BC94BC96BC98BC9A52
:10072800B7EF03F01950176E186A1850000AD8B4BA
:10073800A0EF03F090EF03F01750000AD8B472EF5F
:1007480003F0010AD8B478EF03F0030AD8B47EEFB7
:1007580003F0010AD8B484EF03F0070AD8B48AEF8B
:1007680003F090EF03F01200010E1C6E1C506FECAA
:1007780003F0030E1B6E8A0E1A6E560EE82EFED775
:100788001A2EFCD71B2EFAD71C2A040E1C64CFEF96
:1007980003F0D1EF03F0BAEF03F0040E1C6E1C5007
:1007A8006FEC03F0030E1B6E8A0E1A6E560EE82EBF
:1007B800FED71A2EFCD71B2EFAD71C061C50D8A41D
:1007C800E8EF03F0EAEF03F0D3EF03F01200000EB6
:1007D8003E01DE6F000EDF6F000EE06F000EE16F6E
:1007E800000EE46F000EE56F000EEA6F000EEC6F6E
:1007F800000EF16F000EF36F000EF46F000EF56F30
:10080800000EF66F000EF76F000EF96F000EFA6F0C
:10081800000EFB6F000EFC6F000EFD6F000EFE6FEA
:10082800000EFF6F840EF86F12001B6E60006FF0F1
:10083800F1FE210EE82EFED700F03E01F88FF89D5C
:10084800F881F8B12AEF04F02CEF04F025EF04F05A
:10085800F0511A6E196AEF511924176E000E1A20FA
:10086800186E12006F0060FF16F0390193AF3FEF6A
:1008780004F041EF04F04FEF04F0A3AF46EF04F0AB
:1008880048EF04F04FEF04F0A39F010E156EF80E29
:10089800B76E300EB66E60005BF0D8FF1100000E28
:1008A8003A01406F100E506F000E606F000EC26E5E
:1008B800100EC36E000EC46E000EBA6E000EBB6E34
:1008C800000EBC6E000ECA6E000ECB6E000ECC6E13
:1008D8001200B888F00EB816B9501F0B4009B96E4F
:1008E800F00EB916B88E3901839F938FA39F000E1F
:1008F800156E000E066E000E056EF80EB76E300E01
:10090800B66E120000EE01F0150EEE6AE806FDE183
:10091800080ED56E000ED66E000ED76E000EF86E5D
:100928000001C4EF04F01550D8B49DEF04F09FEF18
:1009380004F0A7EF04F010EC00F0135058EC02F0AC
:10094800132A000E156E120053EC04F0B8EC04F0F4
:100958006DEC04F0CCEC04F0EBEC03F0B8EC03F035
:10096800000E6FEC03F01200620E3901D96F000E11
:10097800DB6F000EDD6F060EDF6F000EDE6F1200FC
:10098800A8EC04F0D2EC04F0C6EF04F00EEF00F08F
:10099800D28A3901839FD28ED28C120097EC04F050
:0409A8001200110028
:020000040020DA
:10000000FF0FFF0FFF0FFF0FFF0FFF0FFF0FFF0F80
:020000040030CA
:0A000000ECFD27FF9FFFFFFFFFFF4D
:00000001FF
