:040000000EEF00F00F
:04000800CFEF0EF038
:08001800ACEF10F04BEF0FF00C
:10080000000001FF00FF000001010000FF00FF01E8
:100810000042746E3A204E4F4E452020202020206A
:1008200000526F7461727920456E636F6465720067
:100830004D724368756E636B756565212100434C8D
:1008400049434B45442020202020004C4F4E472058
:100850005052455353202000506F733A20005B43A1
:1008600057205D005B4343575D0025336420000043
:1008700060008BF1D9FF60008FF1DAFF6F007BFF22
:10088000F6FF6F0077FFF7FF0800F550250AD8A4A0
:100890004CEF04F04EEF04F0A2EF05F060008BF196
:1008A000D9FF60008FF1DAFFDE2A000EDD22000E94
:1008B0004E6E000E4D6E4DC051F04EC052F04F685E
:1008C000506860008BF1D9FF60008FF1DAFF6F0094
:1008D0007BFFF6FF6F0077FFF7FF0800F5502A0A4D
:1008E000D8A475EF04F077EF04F0AAEF04F06000ED
:1008F0008BF1D9FF60008FF1DAFFDE2A000EDD22D6
:10090000600093F1D9FF600097F1DAFF6F007CFF80
:1009100066F0020EDE266F007CFF67F0000EDD221F
:1009200060009BF1D9FF60009FF1DAFF6F0078FF54
:100930004DF06F0074FF4EF04EBEA3EF04F0A1EF38
:1009400004F0EBEF04F051804D6C4E1ED8B04E2AEF
:10095000EBEF04F060008BF1D9FF60008FF1DAFF5C
:100960006F0078FF14F06F0074FF15F0E1EC09F0F0
:1009700014C04DF015C04EF0C7EF04F060008BF1CD
:10098000D9FF60008FF1DAFFDE2A000EDD22D00EE3
:100990000001666FFF0E676F60008BF1D9FF60008A
:1009A0008FF1DAFF6F007BFFF6FF6F0077FFF7FF35
:1009B0000800F550686F696B6651682767516923B5
:1009C000695109E10A0E685DD8A0E9EF04F0EBEF88
:1009D00004F0BEEF04F060008BF1D9FF60008FF1EE
:1009E000DAFF6F007BFFF6FF6F0077FFF7FF08006D
:1009F000F550640AD8B4FFEF04F001EF05F017EFEB
:100A000005F060008BF1D9FF60008FF1DAFF6F0015
:100A10007BFFF6FF6F0077FFF7FF0800F550690ACC
:100A2000D8A415EF05F017EF05F062EF05F06000B0
:100A30008BF1D9FF60008FF1DAFFDE2A000EDD2294
:100A4000600093F1D9FF600097F1DAFF6F007CFF3F
:100A500066F0020EDE266F007CFF67F0000EDD22DE
:100A600060009BF1D9FF60009FF1DAFF6F0078FF13
:100A70006AF06F0074FF6BF00001000E6BBFFF0E99
:100A80006C6F6D6F6E6F6F6F706F716F60C028F0FD
:100A900061C029F06AC02AF06BC02BF06CC02CF04A
:100AA0006DC02DF06EC02EF06FC02FF070C030F012
:100AB00071C031F0C4EC05F028C060F029C061F0CD
:100AC000C3EF05F060008BF1D9FF60008FF1DAFF12
:100AD0006F007BFFF6FF6F0077FFF7FF0800F55010
:100AE000250AD8A476EF05F078EF05F092EF05F02F
:100AF00060008BF1D9FF60008FF1DAFFDE2A000E73
:100B0000DD22000E0E6E250E0D6E60C00FF061C06E
:100B100010F0EAEC0BF0000E0001616F010E606F47
:100B2000C3EF05F060008BF1D9FF60008FF1DAFFB1
:100B3000DE2A000EDD22000E0001616F000E606FE4
:100B4000C3EF05F060008BF1D9FF60008FF1DAFF91
:100B50006F007BFFF6FF6F0077FFF7FF0800F5508F
:100B60000D6E0E6A60C00FF061C010F0EAEC0BF081
:100B700060008BF1D9FF60008FF1DAFFDE2A000EF2
:100B8000DD228BEF05F012002AC042F02BC043F0AB
:100B90002CC044F02DC045F02EC046F02FC047F0C9
:100BA00030C048F031C049F049BED9EF05F0DCEF64
:100BB00005F0010EDDEF05F0000E406E416A405079
:100BC0004110D8B4E6EF05F0E8EF05F0F8EF05F0D6
:100BD000491E481E471E461E451E441E431E426CAB
:100BE000000E43224422452246224722482249221F
:100BF00050BEFDEF05F0FFEF05F000EF06F051925B
:100C000050BE0DEF06F0505006E14F04D8B00BEF88
:100C100006F00DEF06F013EF06F0000E3D6E010E2C
:100C20003C6E17EF06F04FC03CF050C03DF04DC099
:100C30003EF04EC03FF040504110D8A422EF06F0E5
:100C400024EF06F02BEF06F051A429EF06F02BEF6E
:100C500006F02EEF06F03E06D8A03F06000E4B6EC3
:100C60001F0E4A6E000E0001DB6FB3EF06F04A065E
:100C7000D8A04B06BC0E4A24D96E000E4B20DA6E6B
:100C800042C00DF043C00EF044C00FF045C010F05C
:100C900046C011F047C012F048C013F049C014F02C
:100CA0000A0E156E000E166E000E176E000E186EF0
:100CB000000E196E000E1A6E000E1B6E000E1C6EDA
:100CC00096EC0AF00DC032F00EC033F00FC034F0D5
:100CD00010C035F011C036F012C037F013C038F034
:100CE00014C039F032C01FF034C020F0B7EC0FF060
:100CF0001F50300FDF6E3C06D8A03D063E06D8A040
:100D00003F0642C00DF043C00EF044C00FF045C096
:100D100010F046C011F047C012F048C013F049C0AF
:100D200014F00A0E156E000E166E000E176E000EF1
:100D3000186E000E196E000E1A6E000E1B6E000E5D
:100D40001C6E1DEC09F00DC042F00EC043F00FC048
:100D500044F010C045F011C046F012C047F013C077
:100D600048F014C049F04BBEBEEF06F04B5008E10E
:100D70004A04D8A0BEEF06F0C0EF06F0F0EF06F090
:100D80004250431044104510461047104810491077
:100D9000D8A4CDEF06F0CFEF06F037EF06F03DBE5A
:100DA000DCEF06F03D5006E13C04D8B0DAEF06F087
:100DB000DCEF06F037EF06F03FBEE7EF06F03F50FE
:100DC00008E13E04D8A0E7EF06F0E9EF06F0F0EF07
:100DD00006F051B2EEEF06F0F0EF06F037EF06F056
:100DE00040504110D8A4F7EF06F0F9EF06F000EFFD
:100DF00007F051A4FEEF06F000EF07F01FEF07F039
:100E00004A06D8A04B0640504110D8A40AEF07F07C
:100E10000CEF07F012EF07F0000E3B6E2B0E3A6E50
:100E200016EF07F0000E3B6E2D0E3A6EBC0E4A24F4
:100E3000D96E000E4B20DA6E6000EBF0DFFF28C0A9
:100E40001DF029C01EF0BC0E4A241F6E000E4B2060
:100E5000206E3EC021F03FC022F0BEEC0CF01DC061
:100E600028F01EC029F0120020EE19F010EEB0F0AC
:100E7000090E6F006FFFE3FFE806FBE20001B051CF
:100E8000B111D8B446EF07F048EF07F0D4EF07F000
:100E9000B4C023F0010E246E232A51EF07F0D8903E
:100EA0002436232E4FEF07F02450FF0A256E6000F2
:100EB000C3F2D9FF6000C7F2DAFF2550DF16B5C0D4
:100EC00023F0010E246E232A68EF07F0D890243611
:100ED000232E66EF07F02450FF0A256E6000C3F250
:100EE000D9FF6000C7F2DAFF2550DF16B6C023F045
:100EF000010E246E232A7FEF07F0D8902436232E8C
:100F00007DEF07F02450FF0A256E6000C3F2D9FF81
:100F10006000C7F2DAFF2550DF16B7C023F0010EDC
:100F2000246E232A96EF07F0D8902436232E94EFD0
:100F300007F02450FF0A256E6000C3F2D9FF60005D
:100F4000C7F2DAFF2550DF16B8C023F0010E246E79
:100F5000232AADEF07F0D8902436232EABEF07F00D
:100F60002450FF0A256E6000C3F2D9FF6000C7F26B
:100F7000DAFF2550DF16B9C023F0010E246E232AB4
:100F8000C4EF07F0D8902436232EC2EF07F0245088
:100F9000FF0A256E6000C3F2D9FF6000C7F2DAFFD6
:100FA0002550DF1607EF08F0CA0EB21907E13F0E11
:100FB000B319D8A4DEEF07F0E0EF07F0E4EF07F095
:100FC000000EC26E07EF08F0CB0EB21907E13F0E1C
:100FD000B319D8A4EEEF07F0F0EF07F0F4EF07F045
:100FE000000EC36E07EF08F0CC0EB21907E13F0EFA
:100FF000B319D8A4FEEF07F000EF08F004EF08F0F3
:10100000000EC46E07EF08F0000E52EF08F0680EF5
:10101000236EE40EE82EFED7232EFCD700D0B4C0FA
:1010200023F0010E246E232A18EF08F0D8902436FE
:10103000232E16EF08F02450FF0A256E6000CBF235
:10104000D9FF6000CFF2DAFF2550DF16030E05EC62
:101050000EF01A0E236EF80EE82EFED7232EFCD7C4
:1010600000D0030E05EC0EF0540E236E1C0EE82E7D
:10107000FED7232EFCD700D0030E05EC0EF0020E97
:1010800005EC0EF0280E95EC0FF0060E95EC0FF027
:10109000080E266E2684265095EC0FF0010E95EC76
:1010A0000FF0010E1200106EB6C00DF0010E0E6EA4
:1010B0000D2A5DEF08F0D8900E360D2E5BEF08F08C
:1010C0000E50FF0A0F6E6000CBF2D9FF6000CFF226
:1010D000DAFF0F50DF16B7C00DF0010E0E6E0D2AAD
:1010E00074EF08F0D8900E360D2E72EF08F00E5007
:1010F000FF0A0F6E6000CBF2D9FF6000CFF2DAFF7B
:101100000F50DF16B8C00DF0010E0E6E0D2A8BEFDA
:1011100008F0D8900E360D2E89EF08F00E50FF0A19
:101120000F6E6000CBF2D9FF6000CFF2DAFF0F50F4
:10113000DF16B9C00DF0010E0E6E0D2AA2EF08F0F9
:10114000D8900E360D2EA0EF08F00E50FF0A0F6E4D
:101150006000CBF2D9FF6000CFF2DAFF0F50DF164C
:1011600010A0B5EF08F0B7EF08F0CBEF08F0B6C06D
:101170000DF0010E0E6E0D2AC0EF08F0D8900E365D
:101180000D2EBEEF08F06000CBF2D9FF6000CFF269
:10119000DAFF0E50DF1210A2D0EF08F0D2EF08F005
:1011A000E6EF08F0B7C00DF0010E0E6E0D2ADBEF72
:1011B00008F0D8900E360D2ED9EF08F06000CBF273
:1011C000D9FF6000CFF2DAFF0E50DF1210A4EBEF70
:1011D00008F0EDEF08F001EF09F0B8C00DF0010ED6
:1011E0000E6E0D2AF6EF08F0D8900E360D2EF4EFA5
:1011F00008F06000CBF2D9FF6000CFF2DAFF0E50AA
:10120000DF1210A606EF09F008EF09F01CEF09F055
:10121000B9C00DF0010E0E6E0D2A11EF09F0D89035
:101220000E360D2E0FEF09F06000CBF2D9FF6000F3
:10123000CFF2DAFF0E50DF121200000E1E6E1CBE3F
:1012400026EF09F024EF09F038EF09F01C1E1B1EF1
:101250001A1E191E181E171E161E156C000E1622B9
:101260001722182219221A221B221C22010E1E6E7E
:1012700014BE3FEF09F03DEF09F051EF09F0141EE5
:10128000131E121E111E101E0F1E0E1E0D6C000EC0
:101290000E220F2210221122122213221422010EDA
:1012A0001E1A20EE1FF0070EDE6AE806FDE215505A
:1012B00016101710181019101A101B101C10D8B483
:1012C00064EF09F066EF09F0B8EF09F0010E1D6E4A
:1012D00074EF09F0D89015361636173618361936C9
:1012E0001A361B361C361D2A1CAE79EF09F07BEF2F
:1012F00009F06AEF09F0D8901F36203621362236E1
:10130000233624362536263615500D5C16500E58D9
:1013100017500F5818501058195011581A50125889
:101320001B5013581C501458D8A099EF09F09BEF8C
:1013300009F0ACEF09F015500D5E16500E5A17501B
:101340000F5A1850105A1950115A1A50125A1B504D
:10135000135A1C50145A1F80D8901C321B321A3258
:10136000193218321732163215321D2E7BEF09F062
:101370001E50D8B4BEEF09F0C0EF09F0D0EF09F06D
:10138000261E251E241E231E221E211E201E1F6C0B
:10139000000E20222122222223222422252226225C
:1013A0001FC00DF020C00EF021C00FF022C010F0C1
:1013B00023C011F024C012F025C013F026C014F091
:1013C0001200000E1D6E000E1C6E000E1B6E000E35
:1013D0001A6EEDEF09F0144A152A600053F0F6FF7B
:1013E000600057F0F7FF0800F550200AD8B4FBEF73
:1013F00009F0FDEF09F0EBEF09F0F70E166EFF0EA6
:10140000176E600053F0F6FF600057F0F7FF08001A
:10141000F550186E196A16501826175019221950CF
:1014200009E1050E185CD8A018EF0AF01AEF0AF0CF
:10143000EBEF09F024EF0AF0000E1B6E010E1A6E9E
:10144000144A152A5DEF0AF0600053F0F6FF6000C1
:1014500057F0F7FF0800F550166E176A1750000A8C
:10146000D8B435EF0AF05DEF0AF016502B0AD8B465
:1014700020EF0AF0060AD8B41CEF0AF05DEF0AF07C
:101480001CC00DF01DC00EF0000E106E0A0E0F6E87
:1014900049EC10F0600053F0F6FF600057F0F7FFE2
:1014A0000800F5500D5E000E0E5A300E0D241C6E15
:1014B000000E0E201D6E20EF0AF0D00E166EFF0EED
:1014C000176E600053F0F6FF600057F0F7FF08005A
:1014D000F550186E196A165018261750192219500F
:1014E00009E10A0E185CD8A078EF0AF07AEF0AF04A
:1014F00040EF0AF01A501B10D8A481EF0AF083EFD6
:101500000AF091EF0AF01CC016F01DC017F0161E6D
:10151000171E164A172A16C014F017C015F095EFBB
:101520000AF01CC014F01DC015F01200000E1E6E53
:1015300014BE9FEF0AF09DEF0AF0B1EF0AF0141EFF
:10154000131E121E111E101E0F1E0E1E0D6C000EFD
:101550000E220F2210221122122213221422010E17
:101560001E6E1CBEB8EF0AF0B6EF0AF0C8EF0AF024
:101570001C1E1B1E1A1E191E181E171E161E156C69
:10158000000E16221722182219221A221B221C22B0
:10159000155016101710181019101A101B101C10C7
:1015A000D8B4D5EF0AF0D7EF0AF01FEF0BF0010E19
:1015B0001D6EE5EF0AF0D890153616361736183638
:1015C00019361A361B361C361D2A1CAEEAEF0AF0F5
:1015D000ECEF0AF0DBEF0AF015500D5C16500E58D8
:1015E00017500F5818501058195011581A501258B7
:1015F0001B5013581C501458D8A001EF0BF003EFE8
:101600000BF013EF0BF015500D5E16500E5A1750DD
:101610000F5A1850105A1950115A1A50125A1B507A
:10162000135A1C50145AD8901C321B321A321932D9
:1016300018321732163215321D2EECEF0AF01E50FA
:10164000D8B425EF0BF027EF0BF037EF0BF0141E9B
:10165000131E121E111E101E0F1E0E1E0D6C000EEC
:101660000E220F22102211221222132214220DC048
:101670000DF00EC00EF00FC00FF010C010F011C032
:1016800011F012C012F013C013F014C014F01200C5
:10169000A2EC10F0000E106E000E0F6E000E126E17
:1016A000640E116E010E136E70EC0EF0C3EC0DF0B3
:1016B000A7EC10F000019E699F6976EC10F00DC058
:1016C000A1F00EC0A2F000019E51A11909E19F51A5
:1016D000A219D8B46EEF0BF070EF0BF0ADEF0BF07A
:1016E000A1C09EF0A2C09FF08D0E7A6F000E7B6F9E
:1016F0006A0E7C6F080E7D6FA1C07EF0A2C07FF0E5
:10170000F9EC0EF0850E95EC0FF08D0E186E000EB4
:10171000196E7CEC0DF08B0E95EC0FF00001A50519
:10172000D8A495EF0BF097EF0BF09FEF0BF05E0E48
:10173000186E080E196EA0EC0EF0ADEF0BF0A52997
:10174000D8A4A5EF0BF0A7EF0BF0ADEF0BF0640EF4
:10175000186E080E196EA0EC0EF01FEC0DF096EC52
:1017600010F00001A06F020EA019D8A4BAEF0BF080
:10177000BCEF0BF0CDEF0BF0C50E95EC0FF03E0E6D
:10178000186E080E196EA0EC0EF0000E0E6E000E14
:101790000D6E8EEC10F0DFEF0BF0030EA019D8A445
:1017A000D4EF0BF0D6EF0BF0DFEF0BF0C50E95EC9E
:1017B0000FF04B0E186E080E196EA0EC0EF00D0E09
:1017C0004C6EFC0EE82EFED74C2EFCD75DEF0BF0D6
:1017D0000EEF00F00F501010D8B4F1EF0BF0F3EF54
:1017E0000BF0FCEF0BF00F501010D8A4FAEF0BF039
:1017F000FCEF0BF001EF0CF00D50ABEC10F055EFDF
:101800000CF020EE09F00F50D9261050DA22DE50ED
:10181000DE10D8B40EEF0CF010EF0CF02BEF0CF044
:1018200020EE09F00F50D9261050DA2210EE03F006
:101830000F50E1261050E222DE50E65CE650800AAE
:10184000156EDE50800A1558D8B029EF0CF02BEF3A
:101850000CF055EF0CF020EE03F00F50D92610508D
:10186000DA226F0078FF11F06F0074FF12F0600051
:101870003FF0D9FF600043F0DAFF6F0078FF13F00C
:101880006F0074FF14F011501324D96E12501420FD
:10189000DA6E600037F0DFFF20EE03F00F50D9263C
:1018A0001050DA22DE2A000EDD22120082EC10F047
:1018B000056E05500001A619D8B461EF0CF063EF76
:1018C0000CF0BAEF0CF0A645E846FC0B0510046ED0
:1018D000010E0424F66EF76A080EF72208006F0066
:1018E000D4FF06F00650D8B478EF0CF07AEF0CF085
:1018F000B8EF0CF0A3510624076E000E06BEFF0ED3
:10190000A421086EAB51D8B488EF0CF08AEF0CF02C
:10191000B2EF0CF00750A95DAA51800A036E08507F
:10192000800A0358D8B097EF0CF099EF0CF09FEFB6
:101930000CF0A9C007F0AAC008F0B2EF0CF0A75154
:10194000075C0850800A036EA851800A0358D8B07B
:10195000ACEF0CF0AEEF0CF0B2EF0CF0A7C007F05C
:10196000A8C008F007C0A3F008C0A4F006C0A5F006
:1019700005C0A6F03A015799579B120051A0C3EF3A
:101980000CF0C5EF0CF0CFEF0CF01FC016F020C02C
:1019900017F01DC018F01EC019F073EC0FF022BE36
:1019A000D4EF0CF0D6EF0CF0DCEF0CF021C026F0F9
:1019B00022C027F0E0EF0CF0000E276E000E266E1E
:1019C000000E256E000E246EF2EF0CF0000E0E6E6F
:1019D000200E0D6E1DC00FF01EC010F0EAEC0BF0D3
:1019E000244A252A2650245C2550800A236E27503D
:1019F000800A2358D8A0FFEF0CF001EF0DF0E6EFBE
:101A00000CF051B006EF0DF008EF0DF012EF0DF0F5
:101A10001FC016F020C017F01DC018F01EC019F02E
:101A200073EC0FF01FC00DF020C00EF0F6EC0FF0BD
:101A300026500D241D6E27500E201E6E1200CBA6C0
:101A400024EF0DF027EF0DF0010E28EF0DF0000E42
:101A50000D6E0D500001AC19D8B431EF0DF033EF1D
:101A60000DF05FEF0DF0532A030E53643AEF0DF0C3
:101A70003CEF0DF061EF0DF00DC0ACF0000E536EB9
:101A8000AC05D8A446EF0DF048EF0DF04EEF0DF089
:101A9000000EAF6F000EAE6F61EF0DF0E80EAE5DA1
:101AA000030EAF59D8B057EF0DF059EF0DF05DEFC1
:101AB0000DF0020EAD6F61EF0DF061EF0DF0000E55
:101AC000536EAC05D8A467EF0DF069EF0DF07BEF16
:101AD0000DF0050EAE27000EAF23E80EAE1907E19C
:101AE000030EAF19D8A477EF0DF079EF0DF07BEF6F
:101AF0000DF0030EAD6F1200000E1D6E000E1C6E79
:101B0000A0EF0DF01C5018241A6E1D5019201B6EEA
:101B100060006BF0F6FF60006FF0F7FFF86A070EE9
:101B2000F76403D00800F55007D06F00DBFFE9FF32
:101B30006F00DFFFEAFFEF50D7EC0FF01C4A1D2AC1
:101B40001C5018241A6E1D5019201B6E60006BF07B
:101B5000F6FF60006FF0F7FFF86A070EF76403D036
:101B60000800F55007D06F00DBFFE9FF6F00DFFFD3
:101B7000EAFFEF500009D8A4C0EF0DF0C2EF0DF05E
:101B800082EF0DF0120020EEDCF000EE19F0090EED
:101B90006F006FFFEBFFE806FBE234EC07F0010E8D
:101BA00095EC0FF0800E95EC0FF0300E186E080ECD
:101BB000196E7CEC0DF0C00E95EC0FF0210E186E36
:101BC000080E196E7CEC0DF00B0E286E260E276E9B
:101BD0005E0EE82EFED7272EFCD7282EFAD7010E50
:101BE00095EC0FF0800E95EC0FF0580E186E080E65
:101BF000196EA0EC0EF0C00E95EC0FF0110E186EE1
:101C0000080E196EA0EC0EF01200146E145053EC76
:101C100008F0B5C011F0010E126E112A12EF0EF08D
:101C2000D8901236112E10EF0EF06000CBF2D9FFD3
:101C30006000CFF2DAFF1250DF12150E116EC60EE1
:101C4000E82EFED7112EFCD700D0B5C011F0010E42
:101C5000126E112A2EEF0EF0D8901236112E2CEFA4
:101C60000EF01250FF0A136E6000CBF2D9FF600035
:101C7000CFF2DAFF1350DF16120074C078F075C08F
:101C800079F0000E0001BB6F000EBA6F5BEF0EF033
:101C900072C060F073C061F0780E626F000E636F07
:101CA00076C064F077C065F038EC04F00001605154
:101CB000BA276151BB236000E3F1F6FF6000E7F152
:101CC000F7FF0800F5500009D8A469EF0EF06BEF9C
:101CD0000EF048EF0EF0BAC072F0BBC073F0120005
:101CE000000E0001A46F000EA36F000EA56F0FC0C1
:101CF000A7F010C0A8F011C0A9F012C0AAF013C03C
:101D0000ABF0000EAC6F000EAD6F000EAF6F000EAB
:101D1000AE6F6AEC10F00001A66F3A015099509B2B
:101D20005097C388C38AC3865199519B519756894E
:101D30005589568B558B5799579B3901908F1200B7
:101D4000000E1D6E000E1C6EB8EF0EF01C50182415
:101D50001A6E1D5019201B6E60006BF0F6FF6000BC
:101D60006FF0F7FF0800F550D7EC0FF01C4A1D2A62
:101D70001C5018241A6E1D5019201B6E60006BF049
:101D8000F6FF60006FF0F7FF0800F5500009D8A4D7
:101D9000CCEF0EF0CEEF0EF0A6EF0EF012006F00BB
:101DA000D8FF09F06F00DCFF0AF06F00E0FF0BF0D6
:101DB0006F00D4FF0CF0390190AFE1EF0EF0E3EFCC
:101DC0000EF0ECEF0EF0A0AFE8EF0EF0EAEF0EF041
:101DD000ECEF0EF056EC0CF0600033F0F5FF600015
:101DE0002FF0F8FF60002BF0F7FF600027F0F6FF00
:101DF00011007E0E0001806F000E816F7AC082F0AC
:101E00007BC083F0000E866F000E856F000E8C6F16
:101E1000000E8B6F820E726F000E736F7CC074F0B9
:101E20007DC075F0800E766F000E776F3DEC0EF082
:101E3000000185517A25D96E86517B21DA6E000E1C
:101E4000DF6E1200010E136E200E0D180E10D8B4A6
:101E50002CEF0FF02EEF0FF047EF0FF0F70E0F6E95
:101E6000FF0E106E0DC011F00EC012F00F501126B3
:101E700010501222125009E1050E115CD8A043EF58
:101E80000FF045EF0FF047EF0FF0000E136E13C089
:101E90000DF00E6A12003A0EF66E210EF76E000E6D
:101EA000F86E00EEDCF010EE0AF009006F00D7FFCC
:101EB000EEFFE550E150F9E100EEA3F0390EEE6AD5
:101EC000E806FDE100EE4DF0070EEE6AE806FDE1E2
:101ED000080ED56E000ED66E000ED76E000EF86E90
:101EE000000148EF0BF0000E1C6E000E1B6E84EF1D
:101EF0000FF01AC00DF00E6A18C00FF019C010F0E4
:101F0000EAEC0BF01B4A1C2A1B501624D96E1C50FD
:101F10001720DA6EDF501A6E1A50D8A492EF0FF025
:101F200094EF0FF079EF0FF01200186EB4C015F0B7
:101F3000010E166E152A9FEF0FF0D8901636152E4B
:101F40009DEF0FF01650FF0A176E6000CBF2D9FF1D
:101F50006000CFF2DAFF1750DF1618380F0B0F0BA7
:101F600005EC0EF018500F0B05EC0EF0120020BE21
:101F7000C4EF0FF0205006E11F04D8B0C2EF0FF0FD
:101F8000C4EF0FF0D2EF0FF01FC021F020C022F0FD
:101F9000211E221E214A222A21C01FF022C020F029
:101FA000D6EF0FF01FC01FF020C020F01200176EF8
:101FB000B4C015F0010E166E152AE1EF0FF0D8909F
:101FC0001636152EDFEF0FF06000CBF2D9FF600060
:101FD000CFF2DAFF1650DF1217380F0B0F0B05EC9C
:101FE0000EF017500F0B05EC0EF012000DC00FF0A5
:101FF0000EC010F0FEEF0FF00D4A0E2A600037F011
:10200000D9FF60003BF0DAFFDF50D8A40AEF10F0F0
:102010000CEF10F0FCEF0FF00F500D5C0D6E105038
:102020000E580E6E1200D00E0F6EFF0E106E0DC009
:1020300011F00EC012F00F50112610501222125043
:102040000AE10A0E115CD8A028EF10F02BEF10F077
:10205000010E2CEF10F0000E0D6E0E6A1200000E35
:10206000BA6E000EBB6E000EBC6E000ECA6E000E85
:10207000CB6E000ECC6E000EC26E380EC36E000E1C
:10208000C46E000E3A01406F000E506F000E606F7C
:1020900012000D500F026F00CCFF11F06F00D0FF47
:1020A00012F00D501002F35012260E500F02F35092
:1020B000122611C00DF012C00EF01200620E39018E
:1020C000D96F000EDB6F000EDD6F060EDF6F000EA6
:1020D000DE6F1200000ECBBA010E0D6E000ECBB8F3
:1020E000010E0E6E0E500E240D1012003901909F3D
:1020F000A3C00FF0A4C010F0908F0FC00DF010C05F
:102100000EF01200000ECBBA010E016E000ECBB81D
:10211000010E026E02500224011012003901909F3C
:102120000DC0A3F00EC0A4F0908F1200ADC00DF052
:10213000000E0001AD6F0D501200C23FCA3F0001FA
:10214000020304052FEC10F05EEC10F01200D28AAE
:0A215000D28ED28C12001200110092
:020000040020DA
:10000000FF0FFF0FFF0FFF0FFF0FFF0FFF0FFF0F80
:020000040030CA
:0A000000ECFD27FF9FFFFFFFFFFF4D
:00000001FF
