:040000000EEF00F00F
:04000800A4EF02F06F
:1000180018EF02F068EF02F0176EDFEF00F0C39000
:10002800C392C394C396BB90BB92BB94BB9620EF7C
:1000380001F01050D8B423EF00F025EF00F020EFC6
:1000480001F0C390C392C384C386BB90BB8220EFE8
:1000580001F00F50D8B433EF00F035EF00F020EF87
:1000680001F0C390C392C384C386BB80BB9220EFC8
:1000780001F00E50D8B443EF00F045EF00F020EF48
:1000880001F0C380C392C394C386BB92BB8420EFA4
:1000980001F00D50D8B453EF00F055EF00F020EF09
:1000A80001F0C380C392C394C386BB82BB9420EF84
:1000B80001F00C50D8B463EF00F065EF00F020EFCA
:1000C80001F0C380C382C394C396BB94BB8620EF60
:1000D80001F00B50D8B473EF00F075EF00F020EF8B
:1000E80001F0C380C382C394C396BB84BB9620EF40
:1000F80001F00A50D8B483EF00F085EF00F020EF4C
:1001080001F0C390C382C394C386BB90BB8420EF25
:1001180001F00950D8B493EF00F095EF00F020EF0C
:1001280001F0C390C382C394C386BB80BB9420EF05
:1001380001F00850D8B4A3EF00F0A5EF00F020EFCD
:1001480001F0C380C392C384C396BB92BB8620EFE1
:1001580001F00750D8B4B3EF00F0B5EF00F020EF8E
:1001680001F0C380C392C384C396BB82BB9620EFC1
:1001780001F00650D8B4C3EF00F0C5EF00F020EF4F
:1001880001F0C390C382C384C396BB90BB8620EFA3
:1001980001F00550D8B4D3EF00F0D5EF00F0DBEF55
:1001A80000F0C390C382C384C396BB80BB96000E85
:1001B800116E20EF01F01750156E166A1650000ADE
:1001C800D8B4E9EF00F020EF01F01550000AD8B4D8
:1001D80013EF00F0010AD8B41DEF00F0030AD8B4F9
:1001E8002DEF00F0010AD8B43DEF00F0070AD8B4AB
:1001F8004DEF00F0010AD8B45DEF00F0030AD8B45F
:100208006DEF00F0010AD8B47DEF00F00F0AD8B402
:100218008DEF00F0010AD8B49DEF00F0030AD8B4BE
:10022800ADEF00F0010AD8B4BDEF00F0070AD8B46A
:10023800CDEF00F020EF01F012005FEF01F0010EAA
:10024800106E000E0F6E010E0E6E000E0D6E010E7A
:100258000C6E000E0B6E010E0A6E000E096E010E7A
:10026800086E000E076E010E066E000E056E000E7B
:10027800026E010E016E75EF01F0000E106E010E98
:100288000F6E000E0E6E010E0D6E000E0C6E010E3E
:100298000B6E000E0A6E010E096E000E086E010E3E
:1002A800076E000E066E010E056E000E026E000E41
:1002B800016E75EF01F015C017F016C018F0185050
:1002C800000AD8B46AEF01F075EF01F01750000A80
:1002D800D8B423EF01F0010AD8B441EF01F075EF6B
:1002E80001F01200176E9DEF01F0BC94BC96BC980B
:1002F800BC9ABEEF01F0BC84BC96BC98BC9ABEEF19
:1003080001F0BC94BC86BC98BC9ABEEF01F0BC94CA
:10031800BC96BC88BC9ABEEF01F0BC94BC96BC9855
:10032800BC8ABEEF01F0BC94BC96BC98BC9ABEEFE8
:1003380001F01750156E166A1650000AD8B4A7EFC8
:1003480001F097EF01F01550000AD8B479EF01F0E9
:10035800010AD8B47FEF01F0030AD8B485EF01F0A1
:10036800010AD8B48BEF01F0070AD8B491EF01F075
:1003780097EF01F01200010E1A6E1A5076EC01F098
:10038800030E196E8A0E186E560EE82EFED7182E1A
:10039800FCD7192EFAD71A2A040E1A64D6EF01F0E0
:1003A800D8EF01F0C1EF01F0040E1A6E1A5076EC86
:1003B80001F0030E196E8A0E186E560EE82EFED73F
:1003C800182EFCD7192EFAD71A061A50D8A4EFEF10
:1003D80001F0F1EF01F0DAEF01F012001350D8B498
:1003E800F8EF01F0FAEF01F017EF02F0034A042AE0
:1003F800E80E035C030E0458D8A005EF02F007EFDF
:1004080002F011EF02F0000E046E000E036E01C040
:1004180015F002C016F021EC01F0115010EC00F0BC
:10042800112A000E136E12006F0060FF14F03901DC
:1004380093AF21EF02F023EF02F031EF02F0A3AF08
:1004480028EF02F02AEF02F031EF02F0A39F010E2D
:10045800136EF80EB76E300EB66E600053F0D8FF0C
:100468001100000E3A01406F000E506F000E606FD1
:10047800000EC26E000EC36E000EC46E000EBA6E81
:10048800000EBB6E000EBC6E000ECA6E000ECB6E68
:10049800000ECC6E1200B888F00EB816B9501F0BBB
:1004A8004009B96EF00EB916B88E3901839F938F43
:1004B800A39F000E136E000E046E000E036EF80E5E
:1004C800B76E300EB66E120000EE01F0130EEE6A33
:1004D800E806FDE1080ED56E000ED66E000ED76E4A
:1004E800000EF86E000193EF02F035EC02F087EC95
:1004F80002F04FEC02F09BEC02F0BFEC01F0000EB2
:1005080076EC01F01200620E3901D96F000EDB6F34
:10051800000EDD6F060EDF6F000EDE6F120079EC45
:1005280002F0A1EC02F095EF02F00EEF00F0D28A93
:100538003901839FD28ED28C1200F2EC01F01200A6
:020548001100A0
:020000040020DA
:10000000FF0FFF0FFF0FFF0FFF0FFF0FFF0FFF0F80
:020000040030CA
:0A000000ECFD27FF9FFFFFFFFFFF4D
:00000001FF
