:040000000EEF00F00F
:0400080050EF01F0C4
:10001800C7EF00F017EF01F0046E37EF00F0BC9463
:10002800BC96BC98BC9A58EF00F0BC84BC96BC98AF
:10003800BC9A58EF00F0BC94BC86BC98BC9A58EFA8
:1000480000F0BC94BC96BC88BC9A58EF00F0BC94F5
:10005800BC96BC98BC8A58EF00F0BC94BC96BC987F
:10006800BC9A58EF00F00450026E036A0350000A6D
:10007800D8B441EF00F031EF00F00250000AD8B4D4
:1000880013EF00F0010AD8B419EF00F0030AD8B44E
:100098001FEF00F0010AD8B425EF00F0070AD8B422
:1000A8002BEF00F031EF00F012000A50D8B45FEFE8
:1000B80000F061EF00F093EF00F0092A090E0964DF
:1000C80068EF00F06AEF00F091EF00F0000E096EA3
:1000D800BCB471EF00F074EF00F0010E75EF00F0A2
:1000E800000EFF0A026E02460246BC500218FB0BC5
:1000F8000218BC6EBCB683EF00F086EF00F0010E6C
:1001080087EF00F0000EFF0A026E02460246024622
:10011800BC500218F70B0218BC6E000E0A6E1200D3
:10012800010E076E075010EC00F0030E066E8A0EE3
:10013800056E560EE82EFED7052EFCD7062EFAD7EA
:10014800072A040E0764ABEF00F0ADEF00F096EF5E
:1001580000F0040E076E075010EC00F0030E066E58
:100168008A0E056E560EE82EFED7052EFCD7062EF3
:10017800FAD707060750D8A4C4EF00F0C6EF00F07E
:10018800AFEF00F012006F0060FF01F0390193AF8C
:10019800D0EF00F0D2EF00F0E0EF00F0A3AFD7EF20
:1001A80000F0D9EF00F0E0EF00F0A39F010E0A6E17
:1001B800CF0EB76E2C0EB66E600007F0D8FF110098
:1001C800000E3A01406F000E506F000E606F000E77
:1001D800C26E000EC36E000EC46E000EBA6E000E24
:1001E800BB6E000EBC6E000ECA6E000ECB6E000E0B
:1001F800CC6E1200B888F00EB816B9501F0B400923
:10020800B96EB950F00B0409B96EB88E3901839FE5
:10021800938FA39F000E0A6E000E096ECF0EB76E65
:100228002C0EB66E12000A6A096A086A080ED56EA4
:10023800000ED66E000ED76E000EF86E00013FEF6E
:1002480001F0E4EC00F033EC01F0FEEC00F047ECD8
:1002580001F094EC00F0000E10EC00F01200620EB9
:100268003901D96F000EDB6F000EDD6F060EDF6FF0
:10027800000EDE6F120025EC01F04DEC01F041EFAD
:1002880001F00EEF00F0D28A3901839FD28ED28C12
:0A029800120059EC00F012001100F2
:020000040020DA
:10000000FF0FFF0FFF0FFF0FFF0FFF0FFF0FFF0F80
:020000040030CA
:0A000000ECFD27FF9FFFFFFFFFFF4D
:00000001FF
