:04000000FEEF3FF0E0
:10080000001F1F1F1F00000000000000001F1F1F0F
:100810001F1F1F1F1F1F1F1F00001F1F1F1F1F1F26
:100820001F000000000000000000000000000000A9
:1008300000000000000000000000000000000000B8
:10084000001F1F1C1C00000000000000001C1C1FDB
:100850001F1F1F0F0F0F0F1F1F1F1F1E1E1E1E1FEC
:100860001F0103070F000000001E1E1E1E1E1E1E7D
:100870001E1F1F000000001F1F1E1E1E1E1E1E1F0B
:100880001F1F1800000000000000000000000018FA
:100890001F1F070707070707071F1C1C1C1C1C1C22
:1008A0001F1F1C1C1C1C1C1C1C1C1C1C1C1C1C1C82
:1008B0001C1F0000000000001F1C1C1C1C1C1C1C1A
:1008C0001F00000C3C4D724368756E636B75656567
:1008D00021210041444320566F6C6D6574657200A0
:0508E000564443000036
:1008E6002B50800B346E2B502B24366E2AAE7EEFA7
:1008F60004F080EF04F081EF04F036803650D8B46F
:1009060087EF04F089EF04F09EEF04F03628D8A4B0
:100916008FEF04F091EF04F099EF04F0000E286ECB
:10092600000E296E000E2A6E000E2B6E2A8E000E09
:100936002B6EA6EF04F0000E286E000E296E000E38
:100946002A6E000E2B6E2F50800B356E34503518E4
:10095600D8B4B0EF04F0B2EF04F0B3EF04F0348C87
:100966002F502F24356E2EAEBBEF04F0BDEF04F0F2
:10097600BEEF04F035803550D8B4C4EF04F0C6EFAE
:1009860004F0DBEF04F03528D8A4CCEF04F0CEEF6A
:1009960004F0D6EF04F0000E2C6E000E2D6E000E45
:1009A6002E6E000E2F6E2E8E000E2F6EE3EF04F0CD
:1009B600000E2C6E000E2D6E000E2E6E000E2F6E8B
:1009C6003650355CD8B0EAEF04F0ECEF04F013EFE4
:1009D60005F034ACF1EF04F0F3EF04F0F5EF04F0BA
:1009E600800E341A36C037F035C036F037C035F0D1
:1009F60028C037F02CC028F037C02CF029C037F0BB
:100A06002DC029F037C02DF02AC037F02EC02AF0AD
:100A160037C02EF02BC037F02FC02BF037C02FF089
:100A2600000E376E365035C030F0316A305E000E3B
:100A3600315A31BE28EF05F0315009E11A0E305C0B
:100A4600D8A028EF05F02AEF05F061EF05F0285051
:100A560029102A102B10D8A433EF05F036EF05F035
:100A6600010E37EF05F0000E376E000E286E000EF1
:100A7600296E000E2A6E000E2B6E35C036F06AEF18
:100A860005F037A049EF05F04BEF05F051EF05F003
:100A9600D89037300109376E53EF05F0D8903732CA
:100AA60028A058EF05F05AEF05F05BEF05F0378EFA
:100AB6002B342B322A3229322832362A3550365CEC
:100AC600D8A068EF05F06AEF05F044EF05F034BCF6
:100AD6006FEF05F071EF05F0B1EF05F03650D8A4D1
:100AE60077EF05F079EF05F083EF05F0000E286E3D
:100AF600000E296E000E2A6E000E2B6ED2EF06F047
:100B06002C5028262D5029222E502A222F502B22B7
:100B16002BA090EF05F092EF05F03EEF06F037A020
:100B260097EF05F099EF05F09FEF05F0D890373075
:100B36000109376EA1EF05F0D890373228A0A6EF4D
:100B460005F0A8EF05F0A9EF05F0378E2B342B3210
:100B56002A3229322832362A3EEF06F02C50285CFB
:100B66002D5029582E502A582B50800A306E2F505F
:100B7600800A3058D8B0C2EF05F0C4EF05F0EFEFA9
:100B860005F028502C5C306E29502D58316E2A50B5
:100B96002E58326E2B502F58336EFF0E3024286E8F
:100BA600FF0E3120296EFF0E32202A6EFF0E3320F3
:100BB6002B6E800E341A376C3750D8A4E5EF05F04B
:100BC600E7EF05F0F7EF05F0010E2826000E2922C3
:100BD6002A222B22F7EF05F02C50285E2D50295A99
:100BE6002E502A5A2F502B5A285029102A102B10D3
:100BF600D8A400EF06F002EF06F037EF06F0375004
:100C0600D8A408EF06F00AEF06F037EF06F0000E5C
:100C1600286E000E296E000E2A6E000E2B6ED2EF85
:100C260006F0D890283629362A362B3637AE1EEFF0
:100C360006F020EF06F021EF06F0288037A026EF19
:100C460006F028EF06F02CEF06F0D88037362EEFA8
:100C560006F0D89037363650D8B434EF06F036EF73
:100C660006F037EF06F036062AAE3CEF06F03EEF0A
:100C760006F014EF06F0000E356E37AE45EF06F0BF
:100C860047EF06F05FEF06F037C030F07F0E301604
:100C9600D8B450EF06F052EF06F056EF06F0010E0C
:100CA600356E5FEF06F028A05BEF06F05DEF06F00D
:100CB6005FEF06F052EF06F03550D8B465EF06F058
:100CC60067EF06F092EF06F0010E2826000E2922A5
:100CD6002A222B222BA072EF06F074EF06F092EF79
:100CE60006F028C030F029C031F02AC032F02BC0FF
:100CF60033F03334333232323132303230C028F0CE
:100D060031C029F032C02AF033C02BF03628D8B4CF
:100D16008FEF06F091EF06F092EF06F0362A3628AE
:100D2600D8B498EF06F09AEF06F0A2EF06F0365028
:100D3600D8A4A0EF06F0A2EF06F0B4EF06F0000E7E
:100D4600286E000E296E000E2A6E000E2B6E36508F
:100D5600D8A4B0EF06F0B2EF06F0B4EF06F0000E3E
:100D6600346E36A0B9EF06F0BBEF06F0BEEF06F024
:100D76002A8EBFEF06F02A9ED89036302B6E34AE00
:100D8600C7EF06F0C9EF06F0CAEF06F02B8E28C0B3
:100D960028F029C029F02AC02AF02BC02BF0120017
:100DA60047C0D7F0000E0001BF6F42C001F043C03C
:100DB60002F044C003F045C004F0000E056E000EBC
:100DC600066E800E076E3F0E086EC8EC0FF0D8B0A8
:100DD600EFEF06F0F1EF06F0F6EF06F0010E000178
:100DE600CF6F37EF07F0000E0001C06F42C038F03A
:100DF60043C039F044C03AF045C03BF045EC0FF033
:100E060038C0C6F039C0C7F03AC0C8F03BC0C9F018
:100E160029EF07F0C6C001F0C7C002F0C8C003F052
:100E2600C9C004F00A0E056E000E066E000E076EAF
:100E3600000E086EAFEC10F001C0C6F002C0C7F09D
:100E460003C0C8F004C0C9F00001C02B0001C651A0
:100E5600C711C811C911D8A433EF07F035EF07F051
:100E66000DEF07F0C0C0CFF0040ECF653DEF07F0E1
:100E76003FEF07F043EF07F0000ED06F46EF07F0A5
:100E8600CF510508D06F010EC26F000EC36F000E62
:100E9600C46F000EC56F000EC16F6EEF07F0C2C0C3
:100EA60001F0C3C002F0C4C003F0C5C004F00A0ECE
:100EB600056E000E066E000E076E000E086EF0EC54
:100EC60011F001C0C2F002C0C3F003C0C4F004C0F8
:100ED600C5F00001C12BD051C15DD8A075EF07F058
:100EE60077EF07F052EF07F0000E2C6E000E2D6E16
:100EF600000E2E6E3F0E2F6E42C013F043C014F04C
:100F060044C015F045C016F0C2C001F0C3C002F0DF
:100F1600C4C003F0C5C004F0000E19EC0DF001C00A
:100F26000FF002C010F003C011F004C012F013EC71
:100F360009F00FC028F010C029F011C02AF012C025
:100F46002BF073EC04F028C038F029C039F02AC021
:100F56003AF02BC03BF045EC0FF038C0CAF039C070
:100F6600CBF03AC0CCF03BC0CDF0000E0001D26F02
:100F7600000ED16FD2BFC9EF07F0D25109E1050EBD
:100F8600D15DD8A0C9EF07F0CBEF07F0CDEF07F0A2
:100F960006EF08F0BA0ED125D96E000ED221DA6E10
:100FA600CAC001F0CBC002F0CCC003F0CDC004F043
:100FB6000A0E056E000E066E000E076E000E086E17
:100FC60001EC11F00150DF6ECAC001F0CBC002F097
:100FD600CCC003F0CDC004F00A0E056E000E066EFE
:100FE600000E076E000E086EAFEC10F001C0CAF0DE
:100FF60002C0CBF003C0CCF004C0CDF00001D14B51
:10100600D22BBDEF07F0000ED46F000ED36FD4BF06
:1010160016EF08F0D45109E1050ED35DD8A016EFFE
:1010260008F018EF08F01AEF08F012EF09F0D351A4
:101036000408D56FBA0ED525D96EDA6A000EDA2203
:10104600DF50CE6FD0C0D6F0CE51D8A42DEF08F029
:101056002FEF08F040EF08F0D651D519D8B436EF87
:1010660008F038EF08F040EF08F0BF51D8B43EEF73
:1010760008F040EF08F00EEF09F0010EBF6FD551F2
:10108600486E496AFF0E4A6EFF0E4B6ED6514C6E85
:101096004D6A4A504C264B504D2248504C1807E199
:1010A60049504D18D8A45AEF08F05CEF08F004EF49
:1010B60009F0D651D8B462EF08F064EF08F004EFF7
:1010C60009F04650D8A46AEF08F06CEF08F072EF0A
:1010D60008F0D751800F36EC13F09EEF08F0460467
:1010E600D8A478EF08F07AEF08F080EF08F0D7512F
:1010F600C00F36EC13F09EEF08F0020E4618D8A487
:1011060087EF08F089EF08F08FEF08F0D751940FBA
:1011160036EC13F09EEF08F0030E4618D8A496EFAF
:1011260008F098EF08F09EEF08F0D751D40F36EC90
:1011360013F09EEF08F0FE0E58EC13F04650486E82
:10114600496A010E4826000E492248504910D8A483
:10115600AFEF08F0B1EF08F0B8EF08F00001D75193
:10116600800F36EC13F0FFEF08F04650486E496AE0
:10117600010E4826000E492248044910D8A4C6EF9D
:1011860008F0C8EF08F0CFEF08F00001D751C00F04
:1011960036EC13F0FFEF08F04650486E496A010E30
:1011A6004826000E4922020E48184910D8A4DEEF40
:1011B60008F0E0EF08F0E7EF08F00001D751940FD0
:1011C60036EC13F0FFEF08F04650486E496A010E00
:1011D6004826000E4922030E48184910D8A4F6EFF7
:1011E60008F0F8EF08F0FFEF08F00001D751D40F30
:1011F60036EC13F0FFEF08F0DF0E58EC13F00001A9
:10120600D72B46C013F0D7C014F0CE513AEC0BF0F2
:10121600020E0001D727D34BD42B0AEF08F0120099
:101226001250800B1B6E12501224216E11AE1EEF4F
:1012360009F020EF09F021EF09F021802150D8B400
:1012460027EF09F029EF09F03CEF09F02128D8A48F
:101256002FEF09F031EF09F039EF09F0000E0F6EAC
:10126600000E106E000E116E000E126E118E44EFFF
:1012760009F0000E0F6E000E106E000E116E000EBD
:10128600126E1650800B1B1A16501624206E15AEC1
:101296004FEF09F051EF09F052EF09F0208020508E
:1012A600D8B458EF09F05AEF09F06DEF09F020288D
:1012B600D8A460EF09F062EF09F06AEF09F0000EBA
:1012C600136E000E146E000E156E000E166E158E41
:1012D60075EF09F0000E136E000E146E000E156EFB
:1012E600000E166E2050D8B47BEF09F07DEF09F0A2
:1012F60085EF09F02150D8A483EF09F085EF09F0B6
:101306008FEF09F0000E0F6E000E106E000E116EBC
:10131600000E126E39EF0BF015500F026F00CCFF66
:1013260026F06F00D0FF27F026501C6E1D6A1E6A3D
:101336001F6A2750226E236A246A256A14501002F7
:101346006F00CCFF26F06F00D0FF27F026501C263A
:10135600000E1D221E221F2227502226000E2322A7
:1013660024222522135011026F00CCFF26F06F00B5
:10137600D0FF27F026501C26000E1D221E221F22FB
:1013860027502226000E2322242225221EC01FF0CB
:101396001DC01EF01CC01DF01C6A135010026F0009
:1013A600CCFF26F06F00D0FF27F026501C262750D2
:1013B6001D22000E1E22000E1F2214500F026F0067
:1013C600CCFF26F06F00D0FF27F026501C262750B2
:1013D6001D22000E1E22000E1F221EC01FF01DC061
:1013E6001EF01CC01DF01C6A13500F026F00CCFFCC
:1013F60026F06F00D0FF27F026501C2627501D220E
:10140600000E1E22000E1F22155010026F00CCFF88
:1014160026F06F00D0FF27F02650222627502322E1
:10142600000E2422000E2522145011026F00CCFF5C
:1014360026F06F00D0FF27F02650222627502322C1
:10144600000E2422000E2522155011026F00CCFF3B
:1014560026F06F00D0FF27F02650176E2750186E23
:10146600196A1A6A19C01AF018C019F017C018F0CC
:10147600176A1750222618502322195024221A5070
:1014860025221CC017F01DC018F01EC019F01FC081
:101496001AF0190E54EF0AF0D8901A32193218328F
:1014A6001732E82E4FEF0AF0175022261850232243
:1014B600195024221A5025221EC01FF01DC01EF0EE
:1014C6001CC01DF01C6A205021C017F0186A172690
:1014D600000E1822820E1724266EFF0E1820276E85
:1014E6008AEF0AF0D89022362336243625361FAEE8
:1014F6007FEF0AF081EF0AF082EF0AF02280D8909F
:101506001C361D361E361F362606D8A0270624AEE4
:101516008FEF0AF091EF0AF075EF0AF0000E206ED9
:101526001FAE98EF0AF09AEF0AF0BEEF0AF0FF0E30
:101536001C14176EFF0E1D14186EFF0E1E14196E66
:101546007F0E1F141A6E1750181019101A10D8B4DF
:10155600AFEF0AF0B1EF0AF0B5EF0AF0010E206E18
:10156600BEEF0AF022A0BAEF0AF0BCEF0AF0BEEF17
:101576000AF0B1EF0AF02050D8B4C4EF0AF0C6EF73
:101586000AF0EAEF0AF0010E2226000E2322242298
:10159600252225A0D1EF0AF0D3EF0AF0EAEF0AF0F0
:1015A60022C017F023C018F024C019F025C01AF085
:1015B6001A341A3219321832173217C022F018C0EC
:1015C60023F019C024F01AC025F0264A272A27BE80
:1015D600F5EF0AF0275008E12628D8A0F5EF0AF023
:1015E600F7EF0AF001EF0BF0000E226E000E236EED
:1015F600800E246E7F0E256E2FEF0BF027BE0EEFAA
:101606000BF0275006E12604D8B00CEF0BF00EEFD6
:101616000BF01AEF0BF0000E226E000E236E000E7A
:10162600246E000E256E000E1B6E2FEF0BF026C0EB
:1016360021F0FF0E2216FF0E23167F0E2416000E33
:10164600251621A029EF0BF02BEF0BF02CEF0BF05A
:10165600248ED8902130256E1B50251222C00FF003
:1016660023C010F024C011F025C012F01200176E2E
:101676000A0E176041EF0BF043EF0BF02CEF0CF066
:101686005C505D10D8A44AEF0BF04CEF0BF04EEF18
:101696000BF02CEF0CF01350D8A454EF0BF056EFD0
:1016A6000BF05CEF0BF01450800F36EC13F088EF64
:1016B6000BF01304D8A462EF0BF064EF0BF06AEFA3
:1016C6000BF01450C00F36EC13F088EF0BF0020E3F
:1016D6001318D8A471EF0BF073EF0BF079EF0BF042
:1016E6001450940F36EC13F088EF0BF0030E13181A
:1016F600D8A480EF0BF082EF0BF088EF0BF01450BC
:10170600D40F36EC13F088EF0BF01750040D6F0072
:10171600CCFF15F06F00D0FF16F015505C24D96E83
:1017260016505D20DA6EDF5058EC13F01750040D9A
:101736005CC015F05DC016F0F3501526F450162265
:10174600010E1524D96E000E1620DA6EDF5058EC05
:1017560013F01350156E166A010E1526000E16228A
:1017660015501610D8A4BAEF0BF0BCEF0BF0C2EF71
:101776000BF01450800F36EC13F006EF0CF01350FC
:10178600156E166A010E1526000E16221504161081
:10179600D8A4D0EF0BF0D2EF0BF0D8EF0BF014502B
:1017A600C00F36EC13F006EF0CF01350156E166AE8
:1017B600010E1526000E1622020E15181610D8A4B4
:1017C600E7EF0BF0E9EF0BF0EFEF0BF01450940F8F
:1017D60036EC13F006EF0CF01350156E166A010E78
:1017E6001526000E1622030E15181610D8A4FEEFA5
:1017F6000BF000EF0CF006EF0CF01450D40F36ECA3
:1018060013F006EF0CF01750040D5CC015F05DC028
:1018160016F0F3501526F4501622020E1524D96E32
:10182600000E1620DA6EDF5058EC13F01750040D38
:101836005CC015F05DC016F0F3501526F450162264
:10184600030E1524D96E000E1620DA6EDF5058EC02
:1018560013F0120020EE13F010EE50F0090E6F0098
:101866006FFFE3FFE806FBE250505110D8B43EEF9D
:101876000CF040EF0CF09AEF0CF059C01DF0010E81
:101886001E6E1D2A49EF0CF0D8901E361D2E47EF0E
:101896000CF058C01FF0010E206E1F2A55EF0CF0F9
:1018A600D89020361F2E53EF0CF057C021F0010EB2
:1018B600226E212A61EF0CF0D8902236212E5FEF9E
:1018C6000CF056C023F0010E246E232A6DEF0CF0A7
:1018D600D8902436232E6BEF0CF055C025F0010E60
:1018E600266E252A79EF0CF0D8902636252E77EF2E
:1018F6000CF054C027F0010E286E272A85EF0CF055
:10190600D8902836272E83EF0CF028502610241066
:10191600221020101E10FF0A296E600043F1D9FF25
:10192600600047F1DAFF2950DF16CDEF0CF0CA0E42
:10193600521807E13F0E5318D8A4A4EF0CF0A6EFF7
:101946000CF0AAEF0CF0000EC26ECDEF0CF0CB0E31
:10195600521807E13F0E5318D8A4B4EF0CF0B6EFB7
:101966000CF0BAEF0CF0000EC36ECDEF0CF0CC0EFF
:10197600521807E13F0E5318D8A4C4EF0CF0C6EF77
:101986000CF0CAEF0CF0000EC46ECDEF0CF0000E9A
:1019960018EF0DF0680E1D6EE40EE82EFED71D2E14
:1019A600FCD700D054C01DF0010E1E6E1D2ADEEFBE
:1019B6000CF0D8901E361D2EDCEF0CF01E50FF0AE0
:1019C6001F6E60004BF1D9FF60004FF1DAFF1F5028
:1019D600DF16030EB8EC11F01A0E1D6EF80EE82E87
:1019E600FED71D2EFCD700D0030EB8EC11F0540E16
:1019F6001D6E1C0EE82EFED71D2EFCD700D0030E42
:101A0600B8EC11F0020EB8EC11F0280E36EC13F01B
:101A1600060E36EC13F0080E2A6E2A842A5036EC8F
:101A260013F0010E36EC13F0010E1200096E095088
:101A3600D8B420EF0DF022EF0DF044EF0DF004BE08
:101A460029EF0DF027EF0DF044EF0DF001C005F082
:101A560002C006F003C007F004C008F0051E061E0B
:101A6600071E081E052A000E06220722082205C0A8
:101A76000BF006C00CF007C00DF008C00EF04CEFDE
:101A86000DF001C00BF002C00CF003C00DF004C055
:101A96000EF00150021003100410D8A455EF0DF0FB
:101AA60057EF0DF061EF0DF0000E016E000E026EA5
:101AB600000E036E000E046EF2EF0DF0960E0A6E27
:101AC6006BEF0DF00A2AD8900E320D320C320B3223
:101AD600000E0B14056E000E0C14066E000E0D148F
:101AE600076EFE0E0E14086E05500610071008103D
:101AF600D8A480EF0DF082EF0DF065EF0DF090EFBA
:101B06000DF00A2A010E0B26000E0C220D220E22C3
:101B1600D8900E320D320C320B32000E0B14056EBD
:101B2600000E0C14066E000E0D14076EFF0E0E143A
:101B3600086E0550061007100810D8A4A5EF0DF082
:101B4600A7EF0DF084EF0DF0AFEF0DF00A06D89079
:101B56000B360C360D360E360DBEB4EF0DF0B6EF65
:101B66000DF0BEEF0DF0020E0A60BCEF0DF0BEEFF9
:101B76000DF0A9EF0DF00AB0C3EF0DF0C5EF0DF0B3
:101B8600C6EF0DF00D9ED8900A320AC005F0066A1F
:101B9600076A086A05C008F0076A066A056A0550FA
:101BA6000B1206500C1207500D1208500E12095057
:101BB600D8B4E0EF0DF0E2EF0DF0EAEF0DF004BE61
:101BC600E9EF0DF0E7EF0DF0EAEF0DF00E8E0BC02A
:101BD60001F00CC002F00DC003F00EC004F01200BC
:101BE6000A6E59C001F0010E026E012AFDEF0DF0DA
:101BF600D8900236012EFBEF0DF058C003F0010E0F
:101C0600046E032A09EF0EF0D8900436032E07EF70
:101C16000EF057C005F0010E066E052A15EF0EF000
:101C2600D8900636052E13EF0EF056C007F0010EBB
:101C3600086E072A21EF0EF0D8900836072E1FEF00
:101C46000EF00850061004100210FF0A096E60001C
:101C56004BF1D9FF60004FF1DAFF0950DF160AA0F9
:101C660037EF0EF039EF0EF04DEF0EF056C001F0E3
:101C7600010E026E012A42EF0EF0D8900236012EB6
:101C860040EF0EF060004BF1D9FF60004FF1DAFF34
:101C96000250DF120AA252EF0EF054EF0EF068EF78
:101CA6000EF057C001F0010E026E012A5DEF0EF034
:101CB600D8900236012E5BEF0EF060004BF1D9FF93
:101CC60060004FF1DAFF0250DF120AA46DEF0EF04A
:101CD6006FEF0EF083EF0EF058C001F0010E026EAA
:101CE600012A78EF0EF0D8900236012E76EF0EF02C
:101CF60060004BF1D9FF60004FF1DAFF0250DF12AE
:101D06000AA688EF0EF08AEF0EF09EEF0EF059C08D
:101D160001F0010E026E012A93EF0EF0D890023602
:101D2600012E91EF0EF060004BF1D9FF60004FF1EC
:101D3600DAFF0250DF121200CAEC13F025EC12F0A3
:101D4600170E91EC13F001C05AF002C05BF05A5026
:101D56000001ED275B50EE235E2A0A0E5E64B6EFA5
:101D66000EF0B8EF0EF0F1EF0EF0EDC001F0EEC0A0
:101D760002F05EC003F0046A45EC11F001C0EBF01E
:101D860002C0ECF0000E5E6E000E0001EE6F000E5B
:101D9600ED6FEBC001F0ECC002F0036A046A000EBE
:101DA60019EC0DF001C00FF002C010F003C011F0E5
:101DB60004C012F0000E136E000E146E0C0E156E9B
:101DC6003C0E166E13EC09F00FC0E7F010C0E8F0F9
:101DD60011C0E9F012C0EAF0010E5F6E5AC001F0C0
:101DE6005BC002F0036A046A000E19EC0DF001C034
:101DF6000FF002C010F003C011F004C012F0000E84
:101E0600136E000E146E0C0E156E3C0E166E13EC51
:101E160009F00FC0E7F010C0E8F011C0E9F012C0F9
:101E2600EAF0020E4F6E040E4E6EBA0EE82EFED784
:101E36004E2EFCD74F2EFAD700D05F50D8B426EFDF
:101E46000FF028EF0FF0A3EF0EF0E7C042F0E8C066
:101E560043F0E9C044F0EAC045F0000E466E000EBD
:101E6600476ED3EC06F08D0E36EC13F0E00E126ED4
:101E7600080E136E88EC12F0000E5F6EA3EF0EF0E4
:101E8600FEEF3FF03A343B34416E4150D8A44EEF5A
:101E96000FF050EF0FF05AEF0FF0000E386E000EF5
:101EA600396E000E3A6E000E3B6EC7EF0FF038C06B
:101EB6003CF039C03DF03AC03EF03BC03FF0200E4A
:101EC6006AEF0FF0D8903F323E323D323C32E82E78
:101ED60065EF0FF03C50406E3A8EFF0E3816FF0E3F
:101EE6003916FF0E3A16000E3B16960E415E41BE9F
:101EF60081EF0FF07FEF0FF097EF0FF04150800A60
:101F0600970FD8B089EF0FF08BEF0FF08DEF0FF032
:101F160050EF0FF0D8903B323A3239323832413EE8
:101F26008DEF0FF0AFEF0FF01F0E41649DEF0FF036
:101F36009FEF0FF0A7EF0FF050EF0FF0D890383665
:101F460039363A363B3641064150D8A4ADEF0FF04C
:101F5600AFEF0FF0A1EF0FF04050D8B4B5EF0FF090
:101F6600B7EF0FF0BFEF0FF03B1E3A1E391E386C6D
:101F7600000E39223A223B2238C038F039C039F0F7
:101F86003AC03AF03BC03BF01200000E0114096E55
:101F9600000E02140A6E800E03140B6E7F0E0414DC
:101FA6000C6E09500A100B100C10D8A4DDEF0FF0C0
:101FB600DFEF0FF0E7EF0FF0000E016E000E026E7E
:101FC600000E036E000E046E000E0514096E000E60
:101FD60006140A6E800E07140B6E7F0E08140C6E24
:101FE60009500A100B100C10D8A4FCEF0FF0FEEFEE
:101FF6000FF006EF10F0000E056E000E066E000ED6
:10200600076E000E086E04AE0BEF10F00DEF10F029
:1020160016EF10F0016C021ED8B0022A031ED8B0CB
:10202600032A800E045608AE1BEF10F01DEF10F0C9
:1020360026EF10F0056C061ED8B0062A071ED8B08B
:10204600072A800E0856000E011A000E021A000E0C
:10205600031A800E041A000E051A000E061A000E48
:10206600071A800E081A0550015C065002580750E0
:10207600035808500458D8B043EF10F045EF10F05D
:1020860048EF10F0D89049EF10F0D8801200226E79
:102096006BEF10F0810E236E080E246E920E5C6EAE
:1020A600000E5D6E84EF10F0410E236E080E246E56
:1020B6006A0E5C6E000E5D6E84EF10F0010E236EEC
:1020C600080E246E280E5C6E010E5D6E84EF10F015
:1020D6002250186E196A1950000AD8B475EF10F01C
:1020E600AEEF10F01850000AD8B44DEF10F0010A08
:1020F600D8B457EF10F0030AD8B461EF10F0AEEF82
:1021060010F0000E256E1A0E016E000E026E25509E
:10211600080D6F00CCFF18F06F00D0FF19F01850B3
:102126002324036E19502420046E000E066E080E3A
:10213600056EB7EC12F01A0E136E000E146E2550D3
:1021460013EC13F0252A070E2564ACEF10F0AEEF62
:1021560010F086EF10F01200000E096E000E0A6EE7
:10216600000E0B6E000E0C6E0550061007100810C0
:10217600D8B4C0EF10F0C2EF10F0F8EF10F0010E77
:102186000D6ECCEF10F0D8900536063607360836B9
:102196000D2A08AED1EF10F0D3EF10F0C6EF10F015
:1021A600D89009360A360B360C360550015C0650B7
:1021B60002580750035808500458D8A0E5EF10F00D
:1021C600E7EF10F0F0EF10F00550015E0650025AEE
:1021D6000750035A0850045A0980D890083207322B
:1021E600063205320D2ED3EF10F009C001F00AC0F9
:1021F60002F00BC003F00CC004F0120005500610EC
:1022060007100810D8B40AEF11F00CEF11F03CEFEC
:1022160011F0010E096E16EF11F0D890053606364C
:1022260007360836092A08AE1BEF11F01DEF11F02C
:1022360010EF11F00550015C065002580750035884
:1022460008500458D8A02AEF11F02CEF11F034EF03
:1022560011F00550015E0650025A0750035A085005
:10226600045AD8900832073206320532092E1DEF7D
:1022760011F001C001F002C002F003C003F004C077
:1022860004F01200000E066E000E056E03500410D8
:10229600D8B450EF11F052EF11F07AEF11F0010EB1
:1022A600076E5AEF11F0D89003360436072A04AEAB
:1022B6005FEF11F061EF11F056EF11F0D89005368F
:1022C60006360350015C04500258D8A06DEF11F099
:1022D6006FEF11F074EF11F00350015E0450025AD3
:1022E6000580D89004320332072E61EF11F005C045
:1022F60001F006C002F01200540EF66E270EF76EBD
:10230600000EF86E00EE28F110EE28F009006F00BE
:10231600D7FFEEFFE550E150F9E1CC0EF66E250E43
:10232600F76E000EF86E00EE60F010EE5AF009003F
:102336006F00D7FFEEFFE550E150F9E100EE00F146
:10234600280EEE6AE806FDE100EED8F0190EEE6AF8
:10235600E806FDE100EE50F0100EEE6AE806FDE13B
:10236600000EF86E00019FEF0EF00E6E0E50F3ECAD
:102376000DF055C00BF0010E0C6E0B2AC5EF11F0D7
:10238600D8900C360B2EC3EF11F060004BF1D9FF3D
:1023960060004FF1DAFF0C50DF12150E0B6EC60E01
:1023A600E82EFED70B2EFCD700D055C00BF0010E41
:1023B6000C6E0B2AE1EF11F0D8900C360B2EDFEFE6
:1023C60011F00C50FF0A0D6E60004BF1D9FF600052
:1023D6004FF1DAFF0D50DF161200000E096E000EE7
:1023E6000A6E000E0B6E000E0C6E01A0FDEF11F0D2
:1023F600FFEF11F007EF12F00550092606500A22EA
:1024060007500B2208500C22D890053606360736A0
:102416000836D890043203320232013201500210DB
:1024260003100410D8A41AEF12F01CEF12F0F8EF04
:1024360011F009C001F00AC002F00BC003F00CC095
:1024460004F0120020EE60F000EE13F0090E6F00AB
:102456006FFFEBFFE806FBE22DEC0CF0010E36EC0D
:1024660013F0800E36EC13F0C50E126E080E136EC6
:1024760088EC12F0C00E36EC13F0D30E126E080E76
:10248600136E88EC12F00B0E2C6E260E2B6E5E0E63
:10249600E82EFED72B2EFCD72C2EFAD7010E36ECC3
:1024A60013F0000E4AEC10F01200000E3E01DE6F33
:1024B600000EDF6F000EE06F000EE16F000EE46F9E
:1024C600000EE56F000EEA6F000EEC6F000EF16F66
:1024D6000C0EF36F000EF46F000EF56F000EF66F24
:1024E600000EF76F000EF96F000EFA6F000EFB6F0D
:1024F600000EFC6F030EFD6F000EFE6F010EFF6FE8
:10250600940EF86F820EC16F1200000E176E000E49
:10251600166EA0EF12F016501224146E17501320E8
:10252600156E600053F0F6FF600057F0F7FF0800E5
:10253600F55058EC13F0164A172A16501224146E4A
:1025460017501320156E600053F0F6FF600057F029
:10255600F7FF0800F5500009D8A4B4EF12F0B6EF63
:1025660012F08EEF12F0120003C009F004C00AF058
:1025760001C007F002C008F0D8EF12F0600027F0A3
:10258600F6FF60002BF0F7FF08006F00D4FF0BF09A
:10259600094A0A2A60001FF0D9FF600023F0DAFF1B
:1025A60060002FF0DFFF074A082A0506D8A00606B6
:1025B600052806E10628D8A4E3EF12F0E5EF12F0AD
:1025C600C1EF12F01200C33FCB3F0001040506071E
:1025D600FFFF03020405FE050602030600020102D0
:1025E6000701FE0503060602030603020002FE05B6
:1025F6000302030203020602040207FFFE05FE05AC
:1026060000020306000201FF0701FE05030601FFA3
:10261600030603FF0002FE05030203FF0302FE0298
:10262600166E16C015F0070E1516D8901536D890EA
:102636001536D8901534400936EC13F0000E176E97
:1026460017501324D96E000E1420DA6EDF5058ECA2
:1026560013F0172A070E176433EF13F035EF13F054
:1026660023EF13F01200126E54C00FF0010E106E1D
:102676000F2A40EF13F0D89010360F2E3EEF13F0CE
:102686001050FF0A116E60004BF1D9FF60004FF148
:10269600DAFF1150DF1612380F0B0F0BB8EC11F0E2
:1026A60012500F0BB8EC11F01200116E54C00FF05F
:1026B600010E106E0F2A62EF13F0D89010360F2E0F
:1026C60060EF13F060004BF1D9FF60004FF1DAFFC5
:1026D6001050DF1211380F0B0F0BB8EC11F0115020
:1026E6000F0BB8EC11F01200000E3A01406F000E0D
:1026F600506F800E606F000EC26E000EC36E800EAD
:10270600C46E000EBA6E000EBB6E000EBC6E000EDE
:10271600CA6E000ECB6E000ECC6E1200056E600007
:1027260017F0F1FE3E01F88FF89DF881F8B19EEFA3
:1027360013F0A0EF13F099EF13F0F051046E036A53
:10274600EF510324016E000E0420026E1200FFFFFB
:10275600FFFFFEFFFEFF00FFFF0100FF01FFFF017D
:10276600FEFFFF0001FFFF00FFFF00FFFEFF02026A
:102776000303FFFF01FF620E3901D96F000EDB6F05
:10278600000EDD6F060EDF6F000EDE6F120077ECB7
:0C27960013F0BEEC13F058EC12F012002F
:047FFC007FEF11F012
:020000040020DA
:10000000FF0FFF0FFF0FFF0FFF0FFF0FFF0FFF0F80
:020000040030CA
:0A000000ECFD27FF9FFFFFFFFFFF4D
:00000001FF
