:040000000EEF00F00F
:04000800E5EF01F02F
:1000180041EF01F0ABEF01F0046E7FEF00F0C39009
:10002800C392C394BB90BB92BB94C4EF00F0C3903F
:10003800C392C384BB90BB82C4EF00F0C390C39249
:10004800C384BB80BB92C4EF00F0C380C392C39447
:10005800BB92BB84C4EF00F0C380C392C394BB823D
:10006800BB94C4EF00F0C390C382C394BB90BB841D
:10007800C4EF00F0C390C382C394BB80BB94C4EFA9
:1000880000F0C390C392C394BB90BB92BB84C4EFEF
:1000980000F0C390C392C394BB90BB82BB94C4EFDF
:1000A80000F0C390C392C394BB90BB82BB84C4EFDF
:1000B80000F0C390C392C394BB80BB92BB94C4EFBF
:1000C80000F0C390C392C394BB80BB92BB84C4EFBF
:1000D80000F0C390C392C394BB80BB82BB94C4EFAF
:1000E80000F0C390C392C394BB90BB92BB94000E24
:1000F800086EC4EF00F00450026E036A0350000A51
:10010800D8B489EF00F0C4EF00F00250000AD8B468
:1001180013EF00F0010AD8B41BEF00F0030AD8B4BB
:1001280022EF00F0010AD8B429EF00F0070AD8B48A
:1001380030EF00F0010AD8B437EF00F0030AD8B462
:100148003EEF00F0010AD8B445EF00F00F0AD8B42A
:100158004DEF00F0010AD8B455EF00F0030AD8B407
:100168005DEF00F0010AD8B465EF00F0070AD8B4D3
:100178006DEF00F0010AD8B475EF00F0C4EF00F09D
:100188001200046EECEF00F0BC94BC96BC98BC9ACC
:100198000DEF01F0BC84BC96BC98BC9A0DEF01F041
:1001A800BC94BC86BC98BC9A0DEF01F0BC94BC967C
:1001B800BC88BC9A0DEF01F0BC94BC96BC98BC8A74
:1001C8000DEF01F0BC94BC96BC98BC9A0DEF01F001
:1001D8000450026E036A0350000AD8B4F6EF00F028
:1001E800E6EF00F00250000AD8B4C8EF00F0010AA8
:1001F800D8B4CEEF00F0030AD8B4D4EF00F0010A67
:10020800D8B4DAEF00F0070AD8B4E0EF00F0E6EF70
:1002180000F01200010E076E0750C5EC00F0030E47
:10022800066E8A0E056E560EE82EFED7052EFCD7F2
:10023800062EFAD7072A040E076425EF01F027EFE8
:1002480001F010EF01F0040E076E0750C5EC00F046
:10025800030E066E8A0E056E560EE82EFED7052E84
:10026800FCD7062EFAD707060750D8A43EEF01F0B0
:1002780040EF01F029EF01F012006F0060FF01F07C
:10028800390193AF4AEF01F04CEF01F05AEF01F05A
:10029800A3AF51EF01F053EF01F05AEF01F0A39F24
:1002A800010E0B6ECF0EB76E2C0EB66E600007F007
:1002B800D8FF11000B50D8B464EF01F066EF01F0DD
:1002C80077EF01F00A2A090E0A646DEF01F06FEF6B
:1002D80001F075EF01F0000E0A6E082A085010ECC4
:1002E80000F0000E0B6E1200000E3A01406F000E77
:1002F800506F000E606F000EC26E000EC36E000ECF
:10030800C46E000EBA6E000EBB6E000EBC6E000E00
:10031800CA6E000ECB6E000ECC6E1200B888F00EBE
:10032800B816B9501F0B4009B96EB950F00B040943
:10033800B96EB88E3901839F938FA39F000E0B6E01
:10034800000E0A6ECF0EB76E2C0EB66E12000B6A38
:100358000A6A096A086A080ED56E000ED66E000E83
:10036800D76E000EF86E0001D4EF01F078EC01F0C2
:10037800C8EC01F092EC01F0DCEC01F00EEC01F0BD
:10038800000EC5EC00F01200620E3901D96F000EA4
:10039800DB6F000EDD6F060EDF6F000EDE6F1200E2
:1003A800BAEC01F0E2EC01F0D6EF01F00EEF00F04C
:1003B800D28A3901839FD28ED28C12005EEC01F072
:0403C800120011000E
:020000040020DA
:10000000FF0FFF0FFF0FFF0FFF0FFF0FFF0FFF0F80
:020000040030CA
:0A000000ECFD27FF9FFFFFFFFFFF4D
:00000001FF
